:020000040800F2
:100000000000022091110008D9110008D911000840
:10001000D9110008D9110008D9110008000000000A
:10002000000000000000000000000000D9110008DE
:10003000D911000800000000D9110008D9110008EA
:10004000D9110008D9110008D9110008D9110008E8
:10005000D9110008D911000829040008D911000895
:10006000D9110008D9110008D9110008D9110008C8
:10007000D9110008D9110008D9110008D9110008B8
:10008000D9110008D9110008D9110008D9110008A8
:10009000D9110008D9110008D9110008D911000898
:1000A000D9110008D9110008D9110008D911000888
:1000B000D9110008D9110008D9110008D911000878
:1000C000D9110008D9110008D9110008D911000868
:1000D000D9110008D9110008D9110008D911000858
:1000E000D9110008D9110008D9110008D911000848
:1000F000D9110008D9110008D9110008D911000838
:10010000D9110008D9110008D9110008D911000827
:10011000D9110008D9110008D91100081D080008DC
:10012000D9110008D9110008D9110008D911000807
:10013000D9110008D9110008D9110008D9110008F7
:10014000D9110008D9110008D9110008D9110008E7
:10015000D9110008D9110008D9110008D9110008D7
:10016000D9110008D9110008D9110008D9110008C7
:10017000D9110008D9110008D9110008D9110008B7
:08018000D9110008D911000893
:1001880010B5054C237833B9044B13B10448AFF3C9
:1001980000800123237010BD4804002000000000E7
:1001A800C0240008084B10B51BB108480849AFF334
:1001B80000800848036803B910BD074B002BFBD02B
:1001C800BDE81040184700BF00000000C024000828
:1001D8004C0400204404002000000000154B002BB4
:1001E80008BF134B9D46A3F5803A00218B460F4666
:1001F8001348144A121A01F02BFE0F4B002B00D0A3
:1002080098470E4B002B00D098470020002104008F
:100218000D000D48002802D00C4801F0DBFE01F06B
:10022800EFFD2000290000F039FF01F0D9FD00BFE3
:1002380000000800000000000000000000000000AE
:100248004804002070040020DD1F0008E91F000892
:1002580070B52DED0A8BDFED64BA9FED649ADFED82
:10026800649A9FED648ADFED648ADFED64AA9FEDEE
:1002780064BA9FED64AA82B00D46841E00F2CE7661
:10028800EDB99FED610A2BEE800A00F0A3FFDFEDC8
:100298005F7AB6EE007AA0EE277A67EE287A7BEED0
:1002A80088BAFCEEE77ACDED017ABDF8043024F87F
:1002B800023FB442E4D102B0BDEC0A8B70BD012DFF
:1002C8000ED0022D2FD0032D3DD067EE287A7BEE7D
:1002D80088BAFCEEE77ACDED017ABDF80430E6E79E
:1002E8009FED490A2BEE800A00F074FFB0EE40CA79
:1002F8009FED470A2BEE800A00F06CFFDFED456AA0
:10030800DFED457AB6EE007AACEE267A7BEE88BA57
:10031800A0EE277A67EE287AFCEEE77ACDED017A2F
:10032800BDF80430C3E7F4EEC9BAF1EE10FA16D5F9
:10033800CBEE897AB7EE007A77EE877AB0EE087A54
:1003480087EE877AA9E7F4EEC9BAF1EE10FA26D556
:100358007BEE88BA40F6FF73B7EE007AA7E7F4EEB3
:10036800E9BAF1EE10FA25D57BEEC97AB8EE007A33
:1003780067EE877AF0EE006AC7EE8A7AB0EE087AFE
:1003880077EEA67A87EE877A7BEE88BA67EE287AC8
:10039800FCEEE77ACDED017ABDF8043087E7F4EE9C
:1003A800E9BAF1EE10FA11D57BEE88BA00239FED79
:1003B8000E7A7CE7F4EEEABAF1EE10FA0DD57BEE90
:1003C800E97AB0EE087AC7EE8B7ADBE7DFED09BA97
:1003D80040F6FF73B7EE007A69E7DFED06BA9FEDE6
:1003E8000F7A40F2555362E7000000006F12833A1B
:1003F800A69B443B17B7D13800F07F456F12833B6B
:100408007012833A6E12033B5A141D449A99993E0E
:100418005A149D45CDCC4C3ECDCCCC3DABAAAA3E82
:10042800064B5B69DB0705D5054B1A781AB1034BF8
:1004380001225A61704701221A70F8E7003C014016
:100448006404002010B5144C2378DBB2022B18D0BA
:10045800032B0ED0012B00D010BD63780133DBB223
:1004680063706378032B84BF0023637002232370B7
:1004780010BD6068322100F0E3F90028ECD120704B
:1004880010BD064B1B69DB07E6D40323237000F07D
:10049800D1F9606010BD00BF640400200000024074
:1004A800394B3A481A68002142F001021A609960F3
:1004B8001A6822F0847222F480321A6058601A682E
:1004C80082B022F480221A60D960009101911A68E2
:1004D80042F480321A601A4603E0009BB3F5A06F1D
:1004E80009D0136803F400330193009B0133009390
:1004F800019B002BF1D0244B1B6813F4003318BF69
:1005080001230193019B012B0BD0214BD3F88820A9
:100518004FF0006142F47002C3F88820996002B07D
:100528007047194B1B491A6C1B4842F080521A64D9
:100538000A6842F480420A609A689A609A6842F4AB
:1005480000429A609A6842F4A0529A6058601A6809
:1005580042F080721A601A4611680B4B8901FBD56C
:100568000E4A40F2056111609A6822F003029A600F
:100578009A6842F002029A601A46936803F00C03E4
:10058800082BFAD1C1E700BF003802401030002420
:1005980000ED00E00070004008544007003C0240B5
:1005A8001848836803F00C03042B28D0082B09D0C3
:1005B800154B144A15499268C2F303128A5CD3405A
:1005C8000B6170474368416813F4800F436818BF94
:1005D8000F4801F03F020CBF0B49B0FBF2F1C3F327
:1005E800881308BFB1FBF2F101FB03F2054B5B680E
:1005F800C3F3014301335B00B2FBF3F3D9E7044BC8
:10060800D7E700BF003802400024F40004000020AF
:1006180000127A0019491A4A0B6C70B443F040036F
:1006280053264FF47A7584240B641685D56214809A
:10063800938A9BB243F00103938213889BB243F0E1
:1006480001031380114650B1138ADB07FCD50B8ACE
:1006580023F001031B041B0C01380B82F4D1084959
:10066800064A0B8823F001031B041B0C0B80136C38
:1006780023F04003136470BC704700BF0038024089
:10068800001800401849194A0B6C70B443F0400335
:100698000026542584240B641685D5621480938A19
:1006A8009BB243F00103938213889BB243F001038A
:1006B8001380114650B1138ADB07FCD50B8A23F04F
:1006C80001031B041B0C01380B82F4D10749064AAD
:1006D8000B8823F001031B041B0C0B80136C23F005
:1006E8004003136470BC7047003802400018004093
:1006F80070B40948094B026C53264FF0FF35842427
:10070800002142F0080202641E85DD621C80998087
:1007180070BC5962704700BF00380240000C0040AE
:10072800054A938A9BB243F00103938213889BB2D4
:1007380043F0010313807047000C0040044A506ADC
:10074800138823F001031B041B0C1380704700BFA0
:10075800000C00400E48026C4FF0804370B442F029
:10076800010253264FF0FF358424002102641E85C0
:10077800DD621C80998059629A8A92B242F0010225
:100788009A821A8892B242F001021A8070BC7047AD
:10079800003802404FF08043586A70474FF080435A
:1007A8005B6A834205D3084483422CBF00200120A2
:1007B8007047C0431844814294BF0020012070470D
:1007C800F0B4114C114B226C1148002142F0200268
:1007D80053274FF47A76842522641F85DE621D80B4
:1007E800998059629A8A92B2012542F001024FF427
:1007F80000049A829D8180F8371344601A8892B267
:100808002A431A80F0BC70470038024000140040A8
:1008180000E100E0054B1A8AD20705D504490A68A9
:10082800002001320A601882704700BF001400409F
:100838006C040020014B1868704700BF6C0400204E
:10084800084B1B68834205D3084483422CBF002011
:1008580001207047C0431844814294BF0020012002
:10086800704700BF6C040020114A124B116B41F015
:10087800010110B41163116C0F4C41F40031116483
:100888001A6842F0A0021A601A6A42F4EE421A622A
:100898009A6842F020029A609A6880B242F0800218
:1008A80042F20C019A602081A1815DF8044B7047E7
:1008B80000380240000002400044004003490B8811
:1008C800024A5B06FBD580B2908070470044004026
:1008D8000D4A70B4441E00F2FF350D26104614F878
:1008E800011F49B113885B06FCD589B28180237842
:1008F8000A2B03D0AC42F2D170BC704713885B0658
:10090800FCD58680F6E700BF004400400FB42DE90F
:10091800F0418CB012AB53F8046B01933278BAB142
:10092800754C002327461D4631464FF00D08252AF1
:1009380019D023885806FCD592B2BA800B780A2BB6
:100948000BD00135ADB22B46725D7119002AEED17C
:100958000CB0BDE8F04104B0704723885B06FCD5B5
:10096800A7F80480EDE733445A78002AE9D0623AC0
:10097800162A79D8DFE802F05C6E4C782878787807
:100988007878787878787878781F787878780C001C
:100998009B78622B7ED0682B00F08B80772B019B95
:1009A80000F09C801A1D013D1B680192ADB20093B6
:1009B8004FF400604BE0019B1A1D18680192FFF785
:1009C80087FF0135ADB2BCE7019B073323F007036E
:1009D800D3E900010833420F21F0784E0028019333
:1009E80042EACE0371F10002B8BF43F00043002091
:1009F80001F08041009350EA010338D14FF4807030
:100A080002AA694600F0D8F802A8FFF761FFD8E704
:100A18009B78622B30D0682B53D0772B019B64D006
:100A28001A1D013D1B680192ADB2009320200EE013
:100A38009B78622B27D0682B34D0772B019B47D02B
:100A48001A1D013D1B680192ADB2009304200135C7
:100A5800ADB2D5E7019B191D1A78019123885B0671
:100A6800FCD593B2BB80ACE700230093A9E7009BB9
:100A780043F080430093C1E7019B1A1D1B68019254
:100A880000930820E3E7019B1A1D1B68019200935D
:100A98000120DCE7019B1A1D1B68019200934FF4AB
:100AA8000070D4E7019B1A1D1B6801920093022075
:100AB800CDE7019B1A1D1B68019200934FF48060DB
:100AC800C5E7019B1A1D1B68019200931020BEE721
:100AD8001A1D1B68019200930420B8E71A1D1B68B1
:100AE800019200934FF40060B1E71A1D1B68019250
:100AF80000932020ABE700BF004400400D498B89DC
:100B08009BB243F4005343F004038B810B88094ADA
:100B18009B06FBD59088138823F020031B041B0C2D
:100B28001380938923F004031B041B0CC0B2938128
:100B3800704700BF00440040F0B40D4A0D4F00F16B
:100B48000A053026914205F8016D08D3312400E0EA
:100B58001C46891A631C9142DBB2F9D22C70A7FBA0
:100B6800023285424FEAD202ECD1F0BC704700BF96
:100B780000CA9A3BCDCCCCCC70B40B880025093088
:100B88002C46ADB90678302E0FD0D6540B880133D9
:100B98009BB20B8001250134E4B20A2C00F1FF302E
:100BA800EFD10021D15470BC7047092CF3D1ECE788
:100BB8000578D554EAE700BF2DE9F04784B0002353
:100BC800102815461370ADF8023000F0548124D96E
:100BD800B0F5007F4FD040F28280B0F5806F64D0CE
:100BE800B0F5006F16D11A4601240B6800E00446E0
:100BF8001B0F092B03F130008ABF3733A854AB54BD
:100C0800601C0B6880B21B0109280B602246EED1DC
:100C180000232B7204B0BDE8F087022800F014818D
:100C280017D9042840F024810B6805F120003024EE
:100C38003126002BB4BF167014700B6801325B00AC
:100C480082420B60F5D1002385F8203004B0BDE85E
:100C5800F0870128DED10B6805F108003026312421
:100C68001F064CBF147016700B6801325B0082427D
:100C78000B60F5D1CCE71A460B680124C3F30313C4
:100C8800092BD8B200F1300386BF3730A854AB54D3
:100C9800601C0B6880B21B0103280B6040F0D180F8
:100CA8000023AB7004B0BDE8F0871A460B68144601
:100CB800C3F30333092BD8B200F130038ABF3730AE
:100CC8002B55285501320B6892B21B01042A144691
:100CD8000B60EDD100232B7104B0BDE8F08720280C
:100CE80000F0C980B0F5807F94D191ED007AB5EE1F
:100CF800C07AF1EE10FA00F1FA80F7EE007AB4EE5D
:100D0800E77AF1EE10FA00F1DC8040F3018100236C
:100D1800B2EE046A67EE867A0133B4EEE77AF1EE52
:100D280010FA9BB2F2EE046AF4DCC7EEA67A5C1EF7
:100D3800A4B24FF020080DF10E077949DFF8ECC195
:100D4800384601AE4FF0300EC7EE277A9FED757A20
:100D5800FCEEE76A16EE902AF8EE666A77EEE67A17
:100D680067EE877AFCEEE77A17EE90AA914200F8D0
:100D780001ED0BD84FF0310900E09946521A09F1FC
:100D880001038A42DBB2F8D280F80090ACFB013153
:100D9800B0424FEAD101E9D10DF102094946304686
:100DA8002A46FFF7E9FE5E4ADFF880E1394630203F
:100DB800524501F8010D0CD84FF0310C00E09C466B
:100DC800C2EB0A0A0CF101039245DBB2F7D281F8B3
:100DD80000C0AEFB02328E424FEAD202E8D12E2387
:100DE80049462A4630468DF80730FFF7C5FEBDF85C
:100DF8000220531C65219BB2B8F12D0FA954ADF800
:100E0800023058D0464ADFF824E13020A24207F8E1
:100E1800010D08D8312100E01946A41A4B1C944250
:100E2800DBB2F9D23970AEFB0232BE424FEAD202CF
:100E3800ECD1304649462A46FFF79EFE04B0BDE88D
:100E4800F0872246044619E70B6805F110003026A2
:100E580031241B044CBF147016700B6801325B0000
:100E680082420B60F5D100232B7404B0BDE8F087F3
:100E780008287FF4CFAE0A68002A40DB2849DFF84B
:100E8800ACE001AE0DF10E043027914204F8017D6B
:100E980008D8312000E01846521A431C8A42DBB2B7
:100EA800F9D22070AEFB0131B4424FEAD101ECD146
:100EB8000DF10209BDE7023205F80380ADF8022002
:100EC800A0E7DFED197AB4EEE77AF1EE10FA24D54F
:100ED800F0EE676A012467EEA67A0134B4EEE77A89
:100EE800F1EE10FAA4B2F6D44FF02D0823E72D2224
:100EF8000123B1EE477A2A70ADF80230FDE62D23C2
:100F08002B700A68012352420A60ADF80230B5E737
:100F18004FF6FF74DFED047A0BE70124E4E700BF26
:100F280000CA9A3B00007A44CDCCCC3DCDCCCCCC89
:100F38000A4A0B4B116B0B4841F001011163116C0C
:100F480041F0005111641A6842F440721A60DA687C
:100F58003D2122F44072DA60016070470038024097
:100F6800000002400074004005494B68044ADB0752
:100F7800FBD4C0F30B00012390605360704700BF9F
:100F880000740040394B3A4A2DE9F0411D6B394F46
:100F9800394C3A4E45F001051D633D6845F44075EE
:100FA8003D601D6C4FF0530845F010054FF0640C80
:100FB8004FF0840E20271D64A2F82880C2F82CC0A8
:100FC800A2F800E09780958AADB245F001059582B8
:100FD8001588ADB245F0010515801A6C42F0005233
:100FE8001A6422684FF4805522F0010222602560BD
:100FF800226842F004022260226842F00102226064
:101008001A6B002542F400121A63344635602268D0
:101018001A4BD207FBD41A4A1A4D4FF0FF3494608A
:10102800D4609D60D86059601A6842F060621A60A6
:101038001A6842F440321A601A6842F480621A60F0
:101048001A6842F480721A601A6842F400621A60E0
:101058001A6842F400521A601A6842F040021A6094
:101068001A6842F001021A60BDE8F08100380240B7
:1010780000100040000002400074004088600240F8
:101088000060024008740040F024000800000020BE
:101098004404002048040020700400202DE9F04793
:1010A800314A324E324D7478116B324B3248334FDD
:1010B800DFF8D0A041F001011163296821F0030194
:1010C8002960516C4FF0010E002541F480415164B4
:1010D8008560C3F800E05A68ADF5FB6D22F00102A7
:1010E80040215A602D20C3F808E0DD60396002AF66
:1010F800FFF7BAFB71783846FFF7AAF838464FF47D
:101108007A71FFF73FFFFFF75BFBFFF793FBE4B252
:10111800B14680467378A342384606D099F8014014
:1011280099F80110E4B2FFF793F8FFF78BF94046FE
:101138006421FFF785FB0028ECD1FFF77BFBDAF889
:101148000410727837F81110DAF8043000918046EC
:1011580029460B48FFF7DAFB7378A34205F101052E
:101168003846DBD1E1E700BF0038024064040020C4
:1011780000000240003C01400038014000E100E06E
:10118800BC20000888600240002103E00B4B5B583C
:10119800435004310A480B4B42189A42F6D30A4A84
:1011A80002E0002342F8043B084B9A42F9D3FFF7C8
:1011B80077F900F025FEFFF771FF7047F02400086B
:1011C800000000204404002048040020700400208F
:1011D800FEE7000000B510EE103A1B4A23F000436A
:1011E800934283B01ADDB3F1FF4F04DB30EE400ABF
:1011F80003B05DF804FB684600F02AF800F003002D
:1012080001289DED000ADDED010A15D002280DD058
:10121800A8B100F065F9B1EE400AE9E7DFED0B0A85
:10122800002000F0D1FC03B05DF804FB012000F0C1
:10123800CBFCB1EE400ADBE700F052F9D8E7012019
:1012480000F0C2FCD4E700BFD80F493F00000000FF
:1012580070B510EE103A944A23F00044944286B0D8
:1012680010EE106A054666DD904A94421ADC002B9F
:10127800DFED8F7A8F4A24F00F0440F3DD8094422B
:1012880070EE677A66D09FED8C7A77EEC76A012098
:1012980077EEE67AC5ED006A77EEC77AC5ED017A92
:1012A80006B070BD854A944266DDB4F1FF4F49DA55
:1012B800E215863AA4EBC25307EE103AFDEEC76A70
:1012C800DFED7F7AF8EEE66A37EE667ACDED036AEF
:1012D80027EE277AFDEEC76AF8EEE66A37EE667AF9
:1012E800CDED046A67EE277AF5EE407AF1EE10FA52
:1012F800CDED057A40F0B380F5EE406AF1EE10FAD4
:1013080014BF022301236F4902208DE8030003A8BC
:10131800294600F067F9002E12DA95ED007AD5ED2E
:10132800017AB1EE477AF1EE677A404285ED007AAC
:10133800C5ED017A04E0002285ED000A4260002034
:1013480006B070BD70EE407A0020C5ED017AC5ED9B
:10135800007AF5E7DFED5C6A9FED5C7A77EEE67A76
:10136800012077EEC76A77EEE67AC5ED006A77EE78
:10137800C77AC5ED017AE3E700F06EFCDFED546A49
:10138800DFED4B5A9FED4C7AF6EE007AE0EE267AC6
:10139800FDEEE77A17EE900AF8EEE76A1F28B1EE3D
:1013A800666AA6EE250A66EE877A1DDC494A411E62
:1013B80024F0FF0352F82120934215D030EE677ACB
:1013C80085ED007A30EE470A002E30EE670A85ED8B
:1013D800010AB5DAB1EE477AB1EE400A85ED007A36
:1013E80085ED010A4042ABE730EE677AE41517EE67
:1013F800103AC3F3C753E31A082BE1DDDFED327A65
:101408009FED327AF0EE405AE6EE275A30EE650A42
:10141800A6EE270AF0EE407AD6EE877A35EEE77A1E
:1014280017EE103AC3F3C753E41A192C2CDC85EDD8
:10143800007AB0EE650AC5E7944270EE277A10D0BC
:101448009FED1D7A77EE876A4FF0FF3077EEE67AE8
:10145800C5ED006A77EE877AC5ED017A70E7032358
:1014680051E7DFED196A9FED197A77EEA67A4FF00A
:10147800FF3077EE876A77EEE67AC5ED006A77EE99
:10148800877AC5ED017A5BE79FED137A9FED135AD2
:10149800B0EE650AA6EE070A75EEC07AE6EE077AA0
:1014A800D6EE857A8AE700BFD80F493FE3CB1640CE
:1014B800800FC93FD00FC93F43443537800F494398
:1014C80000008043682100080044353708A3852EB2
:1014D80084F9223FE820000800A3852E32318D24AC
:1014E80010EE103A23F00043B3F1485F2CDAFDEE1A
:1014F800C07A17EE903A002B60D020EE007ADFED2C
:10150800314A9FED315ADFED315A9FED316ADFEDF7
:10151800317ADFED316AA7EE245AE5EE075AA5EED7
:10152800876AE6EE077AE7EE876A66EE876A60EE14
:10153800C00AB6EE006AE7EE260AF7EE007AD7EEA2
:10154800060A37EEE00A704720EE007ADFED1D4A02
:101558009FED1D5ADFED1D5A9FED1D6ADFED1D7AC7
:10156800DFED1D6A1D4AA7EE245A9342E5EE075A9D
:10157800A5EE876AE6EE077AE7EE876A66EE876A7F
:10158800D5DD174A934214DC03F17F4307EE903A06
:10159800B7EE006A36EE676A60EEC00AF6EE005AE9
:1015A800E7EE260AD7EE257A77EEE07A36EE670A76
:1015B8007047B6EE076AF5EE027AEDE7B7EE000A75
:1015C800704700BF4ED747ADF6740F317CF293B425
:1015D800010DD037610BB6BAABAA2A3D9999993E4D
:1015E8000000483F2DE9F04F2DED048BD7B05F1E6A
:1015F800D74C649D0293D31E48BF131D54F8256031
:101608000191DB1023EAE3736FEA030BB919039323
:10161800824602EBCB0BA3EB070314D4194465985D
:1016280001311AAA002BAABF50F82340DFEDCC7A6B
:1016380007EE904A03F10103A8BFF8EEE77A8B4260
:10164800E2EC017AEED1002E1ADB029B1AA9741C77
:1016580001EB840442A89D00002FC0F2BA81DFED9F
:10166800C07A52464B1933ED017AF2EC016A99427D
:10167800E6EE877AF7D10431A142E0EC017AEBD1AA
:10168800029ADFEDB48A9FEDB48A06F18043013BEC
:101698009B00C2EB827906AA03F104081344904424
:1016A80004934FEA89093446A50056AB2B44002C15
:1016B80013ED140A18DD42A94B1905AA60EE287A21
:1016C800B0EE407AFDEEE77A73ED016AF8EEE77A5C
:1016D8008B42A7EEC87A37EEA60ABDEEC77A17EE98
:1016E800100A42F8040FE9D1584600F005FBB0EEA5
:1016F800409AB4EE000A29EE000A00F0B5FAF2EEBC
:10170800007AA0EE679ABBF1000FFDEEC99AF8EED9
:10171800E97A39EE679A40F34181601E06AACBF157
:10172800080352F8201041FA03F202FA03F30DF10C
:10173800180EC91A4EF8201019EE900A1044CBF171
:10174800070309EE900A1941002939DD19EE903A8C
:10175800002C03F1010309EE903A40F3CB810022FB
:1017680010460DF1140E08E0C3F5807C13B1CEF8D5
:1017780000C00120013294420CDD5EF8043F0028CD
:10178800F2D00132C3F1FF039442CEF800304FF09B
:101798000100F2DCBBF1000F10DDBBF1010F00F01E
:1017A8000481BBF1020F09D1621E06AB0DF1180EC0
:1017B80053F8223003F03F034EF82230022959D063
:1017C800B5EE409AF1EE10FA66D1631E9E420BDC2C
:1017D80006AA1544002255F8040D454542EA0002C0
:1017E800F9D1002A40F07081731E06AA52F82330FE
:1017F800002B40F07C81049B4FF0010E53F8042D20
:101808000EF1010E002AF9D0A644631C73452FDCA3
:10181800039A9D18029A05F18045A0180EEB020C58
:10182800659A013D02EB85051AAA02EB800002EBDE
:101838008C0C42AA02EB830455F8043F07EE903A59
:10184800F8EEE77A002FE0EC017ADFED457A0BDB62
:10185800524600EB0901034633ED017AF2EC016AC6
:101868008B42E6EE877AF7D16045E4EC017AE3D162
:10187800744619E7B7EE000A30EE499A00289FD05F
:101888005846059100F038FA39EE409A0599B5EEB8
:10189800409AF1EE10FA98D0B0EE490ACBF1000068
:1018A800029100F029FA9FED2C7A0299B4EEC70A4A
:1018B800F1EE10FAC0F27E81DFED267A60EE277A2B
:1018C80006A8FDEEE77A631CF8EEE77A0BF1080B41
:1018D800A7EEC70AFDEEE77ABDEEC00A10EE102AA1
:1018E80040F8242017EE902A40F823205846B7EEF7
:1018F800000A0393029100F0FFF9039B0299002B61
:10190800C0F2C78003F1010E4FEA8E0242AC06A86E
:101918009FED107A1044A71870ED017AF8EEE77A77
:1019280067EE807A20EE070A67ED017AA742F3D1C5
:10193800043A17440025002EC0F2A880002DC0F2FA
:10194800A580064CDFED067A384600220CE000BF81
:10195800802400080000803B000080438C2400089D
:1019680000000000AA4208DCF4EC016AB0EC017A3D
:1019780001329642E6EE877AF4DA56AA02EB85023D
:1019880001357545A7F1040742ED287AD3D1649A49
:10199800032A5FD8DFE802F0673737B010D1631E3B
:1019A80006AA52F823100912CEE6621E06AB0DF104
:1019B800180E53F8223003F07F034EF82230FDE66C
:1019C800F6EE007AB4EEE79AF1EE10FA0ADA0021A0
:1019D800F6E65FED1D7A0431A142E0EC017A7FF46E
:1019E8003BAE4DE619EE903A002C03F1010309EEE7
:1019F800903AC8BF02213FF7B2AEF7EE007A37EE51
:101A0800C99A0221DCE62EAA5FED2B7A02EB8E0E34
:101A18003EED017A964577EE877AF9D1002943D0D1
:101A2800DDED2E6A019AB1EE677A002B76EEE77A41
:101A380082ED007A09DD2FA80122B0EC017A01328B
:101A4800934277EE877AF8DA09B1F1EE677A019B6B
:101A5800C3ED017A19EE903A03F0070057B0BDECD8
:101A6800048BBDE8F08F2EAA5FED437A02EB8E0E51
:101A78003EED017A013B5A1C77EE877AF8D109B11D
:101A8800F1EE677A019BC3ED007AE3E75FED4C7AEC
:101A980073E7649A032ADDD8DFE802F013020280B4
:101AA8005FED517A0029BBD19DED2E7A019A002B6A
:101AB800C2ED007A77EE677ABDDC019BC3ED017A4F
:101AC800C8E75FED597ADAE706AAABF1080B52F8D6
:101AD8002320002A7FF40AAF06AA02EB830252F8F9
:101AE800040D013BABF1080B0028F8D0FEE64FF0DF
:101AF800010E89E600204DE6002B4FDD9A0056A81E
:101B080010442EAD141D10ED287A2C44A81870ED41
:101B1800017A77EE276AA84277EEE67A77EE277A97
:101B2800B0EE667A64ED017AC0ED006AEFD1012B60
:101B380034DD131D56AC1444034414ED287A0244D2
:101B48002FAC184672ED017A77EE876AA24277EEDB
:101B5800E67A77EE877AB0EE667A60ED017AC2EDC2
:101B6800006AEFD15FED827A30AA33ED017A9342B1
:101B780077EE877AF9D1A9B1DDED2E6A9DED2F7A3E
:101B8800019AF1EE677AF1EE666AB1EE477AC2ED34
:101B9800027AC2ED006A82ED017A5BE75FED907A26
:101BA8000029E9D101982E9A2F9BC0ED027A026094
:101BB80043604FE7BDEEC00A06A810EE102A234680
:101BC80040F8242092E600BF10EE103A23F00043BC
:101BD800B3F1485F04DAFDEEC07A17EE903A23B30A
:101BE80060EE007A9FED155ADFED155A9FED156AE4
:101BF800DFED156A9FED157AE7EE855A27EE805AD4
:101C0800A5EEA76AE6EE276AA6EEA77A70B127EED8
:101C1800457AF6EE006AA0EEA67ADFED0D6AD7EEF9
:101C2800270AE5EE260A30EE600A7047DFED096AFA
:101C3800E7EE876AA6EE850A704700BFD3C92E2F44
:101C4800342FD7B21BEF3836010D50B98988083CBC
:101C5800ABAA2A3EABAA2ABE10EE103A23F00043E4
:101C680000EE103A704700BF10EE102A22F0004133
:101C7800CB0D7F3B162B17DC002B10EE100A19DB5F
:101C88001A491941114222D0DFED197A70EE277AEC
:101C9800F5EEC07AF1EE10FA19DD002A18DB20EA19
:101CA800010300EE103A7047B1F1FF4F0FD330EE49
:101CB800000A7047DFED0E7A70EE277AF5EEC07AEB
:101CC800F1EE10FA03DD002A08DB9FED0A0A7047DF
:101CD8004FF4000242FA03F31844E0E70029FFEE4C
:101CE800007A18BFB0EE670A704700BFFFFF7F0099
:101CF800CAF249710000000008B510EE103A33F03E
:101D080000422DED028B11D0B2F1FF4F11D2B2F586
:101D1800000F13D3D20D0244FE2A2EDC002A1ADD4E
:101D280023F0FF4343EAC25300EE103ABDEC028BA6
:101D380008BDBDEC028B30EE000A08BD1D4BDFED7F
:101D48001E7A984220EE270A22DB10EE103AC3F3DF
:101D5800C752193ADFE712F1160F1EDA4CF2503368
:101D680098420ADC9FED158AF0EE400AB0EE480A68
:101D780000F02AF820EE080AD8E79FED118AF0EE65
:101D8800400AB0EE480A00F01FF820EE080ACDE736
:101D9800DFED0A0A20EE200AC8E7193223F0FF43D4
:101DA80043EAC253DFED077A00EE103A20EE270A25
:101DB800BCE700BFB03CFFFF0000004C6042A20D32
:101DC800CAF249710000003310EE103A23F00042C5
:101DD80010EE903A03F00043134300EE103A7047B8
:101DE80008B50021044600F08BF8044B1868C36B53
:101DF80003B19847204600F06DFB00BFBC240008E3
:101E080070B50F4E0F4D761BB61018BF002405D0C5
:101E1800013455F8043B9847A642F9D10A4E0B4DB8
:101E2800761B00F04BFBB61018BF002406D0013417
:101E380055F8043B9847A642F9D170BD70BD00BF64
:101E4800E4240008E4240008EC240008E424000842
:101E580070B4840746D0541E002A41D0CDB2034640
:101E680002E0621EE4B3144603F8015B9A07F8D156
:101E7800032C2ED9CDB245EA05250F2C45EA054598
:101E880019D903F110022646103E0F2E42F8105CB5
:101E980042F80C5C42F8085C42F8045C02F110025B
:101EA800F2D8A4F1100222F00F0204F00F0410324D
:101EB800032C13440DD91E462246043A032A46F839
:101EC800045BFAD8221F22F003020432134404F000
:101ED80003042CB1C9B21C4403F8011BA342FBD173
:101EE80070BC704714460346C2E700BF024B13B1EB
:101EF800024800F06FB8704700000000E91F0008B2
:101F08002DE9F04F314B83B01B68009303F5A473A0
:101F180081460E460193009BD3F8487127B3DDF83C
:101F280004A07C68651E0ED4013407EB84044FF0CE
:101F38000008E6B1D4F80031B34218D0013D6B1C5B
:101F4800A4F10404F5D1224B73B17B68002B36D180
:101F58003B68002B34D03846CAF80030AFF3008015
:101F6800DAF80070002FDCD103B0BDE8F08F7B6891
:101F78002268013BAB420CBF7D60C4F80080002A98
:101F8800DCD0D7F88831D7F804B00121A94019422C
:101F980008D190477B685B45BDD1DAF80030BB4279
:101FA800CCD0B8E7D7F88C31194204D14846D4F8D8
:101FB80080109047EEE7D4F880009047EAE73B6846
:101FC800BA461F46002FACD1CEE700BFBC2400089C
:101FD80000000000014600200246034600F016B843
:101FE80038B5084B084DED1AAC1018BFED1805D0E0
:101FF800013C55F8043D9847002CF9D1BDE838401C
:1020080000F062BAEC240008F02400082DE9F0473B
:10201800254C2568D5F84841064688469246994693
:10202800CCB360681F2818DC431C7EB104EB800524
:102038000121C5F888A0D4F8887101FA00F2174385
:10204800022EC4F88871C5F808911ED0023063606A
:1020580044F820800020BDE8F087144B03B34FF408
:10206800C870AFF300800446D0B1D5F848310027D6
:1020780080E88800C5F8484138460123C4F88871CB
:10208800C4F88C71002EE1D0D0E7D4F88C110A4343
:10209800C4F88C21DAE705F5A674C5F84841C0E70D
:1020A8004FF0FF30BDE8F087BC24000800000000B6
:1020B800FEE700BF2D3E2052554E5B25785D20532C
:1020C80049475B25645D20444D415F4E5444525B53
:1020D80025645D2044414320565B25645D0A000069
:1020E800000FC93F000F494000CB9640000FC94080
:1020F8000053FB4000CB164100ED2F41000F494132
:102108000031624100537B41003A8A4100CB96413D
:10211800005CA34100EDAF41007EBC41000FC94106
:1021280000A0D5410031E24100C2EE410053FB411D
:1021380000F20342003A0A420083104200CB1642E2
:1021480000141D42005C234200A5294200ED2F42E5
:1021580000363642007E3C4200C74242000F4942E8
:10216800A2000000F9000000830000006E000000DB
:102178004E00000044000000150000002900000087
:10218800FC0000002700000057000000D1000000FC
:10219800F500000034000000DD000000C000000071
:1021A800DB000000620000009500000099000000BC
:1021B8003C000000430000009000000041000000C7
:1021C800FE0000005100000063000000AB000000AA
:1021D800DE000000BB000000C50000006100000038
:1021E800B7000000240000006E0000003A00000064
:1021F800420000004D000000D2000000E000000096
:1022080006000000490000002E000000EA0000005F
:1022180009000000D1000000920000001C0000002E
:10222800FE0000001D000000EB0000001C00000084
:10223800B100000029000000A70000003E000000D7
:10224800E80000008200000035000000F5000000F2
:102258002E000000BB0000004400000084000000C5
:10226800E90000009C00000070000000260000004B
:10227800B40000005F0000007E0000004100000084
:102288003900000091000000D6000000390000006D
:10229800830000005300000039000000F400000033
:1022A8009C000000840000005F0000008B0000001C
:1022B800BD000000F9000000280000003B000000FD
:1022C8001F000000F800000097000000FF00000059
:1022D800DE00000005000000980000000F0000006C
:1022E800EF0000002F000000110000008B0000002C
:1022F8005A0000000A0000006D0000001F000000E6
:102308006D000000360000007E000000CF000000D5
:1023180027000000CB00000009000000B700000003
:102328004F000000460000003F000000660000006B
:102338009E0000005F000000EA0000002D00000081
:102348007500000027000000BA000000C700000068
:10235800EB000000E5000000F10000007B00000039
:102368003D0000000700000039000000F7000000F1
:102378008A0000005200000092000000EA000000FD
:102388006B000000FB0000005F000000B1000000CF
:102398001F0000008D0000005D0000000800000024
:1023A8005600000003000000300000004600000056
:1023B800FC0000007B0000006B000000AB00000088
:1023C800F0000000CF000000BC000000200000006A
:1023D8009A000000F4000000360000001D00000014
:1023E800A9000000E3000000910000006100000067
:1023F8005E000000E60000001B000000080000006E
:102408006500000099000000850000005F000000E2
:1024180014000000A0000000680000004000000058
:102428008D000000FF000000D800000080000000C0
:102438004D0000007300000027000000310000007C
:10244800060000000600000015000000560000000D
:10245800CA00000073000000A8000000C9000000C6
:1024680060000000E20000007B000000C0000000E7
:102478008C0000006B000000040000000700000052
:10248800090000000000C93F0000F0390000DA37F9
:102498000000A2330000842E0000502B0000C22749
:1024A8000000D0220000C41F0000C61B0000441713
:1024B800430000001800002000000000F8B500BF2D
:1024C800F8BC08BC9E467047F8B500BFF8BC08BC0D
:0424D8009E46704765
:0824DC0008DDFF7F0100000094
:0824E400F51E0008AD0100081F
:0424EC00890100085A
:1024F00000000000000000000000000001020304D2
:1025000006070809007A030A0000000004030020FF
:102510006C030020D4030020000000000000000035
:1025200000000000000000000000000000000000AB
:10253000000000000000000000000000B8240008B7
:10254000000000000000000000000000000000008B
:10255000000000000000000000000000000000007B
:10256000000000000000000000000000000000006B
:10257000000000000000000000000000000000005B
:10258000000000000000000000000000000000004B
:10259000000000000000000000000000000000003B
:1025A000000000000000000000000000000000002B
:1025B00001000000000000000E33CDAB34126DE6C8
:1025C000ECDE05000B000000000000000000000031
:1025D00000000000000000000000000000000000FB
:1025E00000000000000000000000000000000000EB
:1025F00000000000000000000000000000000000DB
:1026000000000000000000000000000000000000CA
:04293000180000206B
:04293400000000009F
:04000005080011914D
:00000001FF
