:020000040800F2
:1000000000000220D50C00081D0D00081D0D000881
:100010001D0D00081D0D00081D0D0008000000004A
:100020000000000000000000000000001D0D00089E
:100030001D0D0008000000001D0D00081D0D00082A
:100040001D0D00081D0D00081D0D00081D0D0008E8
:100050001D0D00081D0D00081D0D00081D0D0008D8
:100060001D0D00081D0D00081D0D00081D0D0008C8
:100070001D0D00081D0D00081D0D00081D0D0008B8
:100080001D0D00081D0D00081D0D00081D0D0008A8
:100090001D0D00081D0D00081D0D00081D0D000898
:1000A0001D0D00081D0D00081D0D00081D0D000888
:1000B0001D0D00081D0D00081D0D00081D0D000878
:1000C0001D0D00081D0D00081D0D00081D0D000868
:1000D0001D0D00081D0D0008F90400081D0D000885
:1000E0001D0D00081D0D00081D0D00081D0D000848
:1000F0001D0D00081D0D00081D0D00081D0D000838
:100100001D0D00081D0D00081D0D00081D0D000827
:100110001D0D00081D0D00081D0D00081D0D000817
:100120001D0D00081D0D00081D0D00081D0D000807
:100130001D0D00081D0D00081D0D00081D0D0008F7
:100140001D0D00081D0D00081D0D00081D0D0008E7
:100150001D0D00081D0D00081D0D00081D0D0008D7
:100160001D0D00081D0D00081D0D00081D0D0008C7
:100170001D0D00081D0D00081D0D00081D0D0008B7
:080180001D0D00081D0D000813
:1001880010B5054C237833B9044B13B10448AFF3C9
:1001980000800123237010BD4C04002000000000E3
:1001A8007010000808B5034B1BB103490348AFF3AF
:1001B800008008BD000000005004002070100008F6
:1001C800154B002B08BF134B9D46A3F5803A002121
:1001D8008B460F461348144A121A00F0D1FD0F4BF4
:1001E800002B00D098470E4B002B00D098470020DA
:1001F800002104000D000D48002802D00C4800F032
:1002080087FE00F099FD2000290000F013FD00F0A2
:1002180083FD00BF0000080000000000000000008F
:10022800000000004C04002090060020190F000870
:10023800250F0008114A124B116B41F0010110B44F
:100248001163116C0F4C41F4003111641A6842F0CB
:10025800A0021A601A6A42F4EE421A629A6842F0E0
:1002680020029A609A6880B242F0800242F2080145
:100278009A602081A1815DF8044B704700380240E4
:100288000000024000440040084A0949938923F4C9
:1002980000531B041B0C402093814860938943F44E
:1002A800005343F024039381704700BF004400408B
:1002B80000E100E0064B074A9889074902404020C0
:1002C8009A81C1F884009A8942F400529A81704751
:1002D80000440040DFDFFFFF00E100E0034A13882D
:1002E8005B06FCD580B29080704700BF0044004098
:1002F8000C4A30B4441E0D2500F2FF3014F8011FDB
:1003080049B113885B06FCD589B2918023780A2B02
:1003180003D08442F2D130BC704713885B06FCD509
:100328009580F6E7004400400FB42DE9F0498DB000
:1003380014AB53F8046B0193327862B300246A4D0E
:100348006A4F234631464FF00D08252A14D133440D
:100358005A78CAB1623A162A00F29980DFE802F0A8
:100368007F756497429797979797979797979797D7
:1003780097399797979726002B885806FCD592B2FD
:10038800AA800B780A2B0BD00134A4B22346325D25
:100398003119002AD9D10DB0BDE8F04904B0704731
:1003A8002B885B06FCD5A5F80480EDE79B78019ABD
:1003B800622B02F1040112686FD0682B00F086806E
:1003C800772B04BF0134A4B2CDE900214FF40060BB
:1003D80055E0019B1A1D18680192FFF789FF013447
:1003E800A4B2D1E7019B073323F00703D3E900BC8C
:1003F800083307EACC02BBF1000F42EA5B720193B3
:100408004FF000007CF100030CF08041B8BF42F0CF
:10041800004250EA010300923CD0009B43F0804325
:1004280000934FF480702AE09B78019A622B02F1C6
:10043800040112683ED0682B4FD0772B04BF0134DB
:10044800A4B2CDE90021202019E0019B191D1A78DA
:1004580001912B885B06FCD593B2AB80BFE79B78F4
:10046800019A622B02F1040112681DD0682B27D073
:10047800772BCDE9002104BF0134A4B2042002AADD
:10048800694600F0ADF802A8FFF732FFA7E700239E
:100498000093A4E74FF48070F1E70134A4B2CDE9EA
:1004A80000214FF40070EAE70134A4B2CDE900213D
:1004B8000120E4E70134A4B2CDE900210820DEE7F9
:1004C8000134A4B2CDE900210220D8E70134A4B256
:1004D800CDE900214FF48060D1E70134A4B2CDE921
:1004E80000211020CBE700BF00440040F8FFFF3F89
:1004F800034B1A88920602D59A88D2B29A8070471E
:10050800004400400849094A0B88128801339BB20D
:10051800B3F5007F28BF0023934204D0044A05485E
:10052800D25C82800B8070470400002068040020A1
:100538006C04002000440040F0B40D4A0D4F00F157
:100548000A053026914205F8016D08D3312400E0F0
:100558001C46891A631C9142DBB2F9D22C70A7FBA6
:100568000232A8424FEAD202ECD1F0BC704700BF79
:1005780000CA9A3BCDCCCCCC70B400F10A0600245A
:1005880016F8013D302BE5B21FD00C8813550B88A7
:100598006C1C0133E4B29BB20A2C0B8011D0C5F15C
:1005A8000805061BEDB2751BC4F10904083504449F
:1005B80014F80109D0540B8801339BB2A5420B8073
:1005C800F6D10021D15470BC7047092C01D00134F8
:1005D800D6E7088813540B8801339BB20B80F0E7E9
:1005E8002DE9F04F87B00023102817461370ADF897
:1005F8000A3000F04A8120D9B0F5007F4BD07AD973
:10060800B0F5806F61D0B0F5006F13D10B6802F1BF
:1006180008041B0F092BD8B200F130038ABF37300A
:10062800137010700B6801321B0194420B60F0D1FB
:1006380000233B7207B0BDE8F08F022800F00E815E
:1006480017D9042840F01E810B6802F120003024DD
:100658003125002BB4BF157014700B6801325B0094
:1006680090420B60F5D1002387F8203007B0BDE831
:10067800F08F0128DED10B6802F108003025312403
:100688001E064CBF147015700B6801325B00904257
:100698000B60F5D1CCE70B68C3F30313092B8CBFB0
:1006A8003733303313700B681A0103F00F03092B2B
:1006B80094BF303337330A607B700B6800221B010C
:1006C8000B60BA7007B0BDE8F08F0B68141DC3F358
:1006D8000333092B03F130008ABF373310701370CE
:1006E8000B6801321B01A2420B60F0D100233B7161
:1006F80007B0BDE8F08F202800F0C780B0F5807FF4
:1007080098D191ED007AB5EEC07AF1EE10FA06D5DF
:100718002D220123B1EE477A3A70ADF80A30F7EE90
:10072800007AB4EEE77AF1EE10FA00F1D68040F3E1
:10073800EA800024B2EE046A00E01C4667EE867A7E
:10074800631CB4EEE77AF1EE10FA9BB2F5DCC7EE63
:10075800866A4FF0200B0DF116086E48DFF8BCC111
:1007680043460DF10C093026C7EE267A9FED6A7ACA
:10077800FCEEE76A16EE901AF8EE666A77EEE67A0D
:1007880067EE877AFCEEE77A17EE905A884203F80C
:10079800016D06D83022091A01328142D2B2FAD24A
:1007A8001A70ACFB002099454FEAD000EED10DF14C
:1007B8000A0A51463A4648460193FFF7DDFE554975
:1007C800DFF858E1019B46464FF0300CA94206F885
:1007D80001CD08D8312000E010466D1A421C8D4228
:1007E800D2B2F9D23070AEFB01219E424FEAD1015C
:1007F800ECD12E233A46514648468DF80F30FFF784
:10080800BBFEBDF80A20531C65219BB2BBF12D0F1E
:10081800B954ADF80A3004D1023207F803B0ADF884
:100828000A203C4A3D483021A24208F8011D07D859
:100838003023A41A01339442DBB2FAD288F800308C
:10084800A0FB023246454FEAD202EDD13A46514664
:100858004846FFF791FE07B0BDE8F08F0B6802F13C
:100868001000302531241B044CBF147015700B6820
:1008780001325B0090420B60F5D100233B7407B056
:10088800BDE8F08F08287FF4D5AE0A68002A07DA99
:100898002D233B700A68012352420A60ADF80A30E2
:1008A8001C491E4E0DF10C090DF11604302591421C
:1008B80004F8015D08D8312000E01846521A431C9C
:1008C8008A42DBB2F9D22070A6FB0131A1454FEA7A
:1008D800D101ECD10DF10A0AB8E7DFED116AB4EEE7
:1008E800E67AF1EE10FA13D5F0EE667A012466EE98
:1008F800A76A0134B4EEE67AF1EE10FAA4B2F6D49F
:100908004FF02D0B27E74FF6FF74DFED056A20E760
:100918000124F5E700CA9A3B00007A44CDCCCCCC40
:10092800CDCCCC3D1749184A0B6C43F0400330B48A
:100938000B64532584234FF47A741585D46213808D
:10094800938A43F001039382138843F001031380D1
:1009580050B1138ADB07FCD5138A23F001031B046B
:100968001B0C01381382F4D10749064A0B8823F07F
:1009780001031B041B0C0B80136C23F0400313644E
:1009880030BC704700380240001800401749184A28
:100998000B6C43F0400330B40B64002584235424CB
:1009A8001585D4621380938A43F0010393821388D8
:1009B80043F00103138050B1138ADB07FCD5138A77
:1009C80023F001031B041B0C01381382F4D10849DE
:1009D800064A0B8823F001031B041B0C0B80136CC5
:1009E80023F04003136430BC704700BF0038024056
:1009F8000018004009490A4B0A6C30B442F008025A
:100A08000A6453254FF0FF34002284201D85DC62E0
:100A1800188030BC9A805A62704700BF0038024084
:100A2800000C0040044B9A8A42F001029A821A880C
:100A380042F001021A807047000C0040044A506AD4
:100A4800138823F001031B041B0C1380704700BF9D
:100A5800000C00400D490A6C4FF0804342F001023F
:100A680030B484200A64532500224FF0FF341D85DA
:100A7800DC6218809A805A629A8A42F001029A824D
:100A88001A8842F001021A8030BC704700380240D0
:100A98004FF08043586A70474FF080435B6A834247
:100AA80005D30844984294BF002001207047C043F2
:100AB800184488422CBF002001207047A01000086D
:100AC800000000204C0400204C0400209006002068
:100AD800384B39481A68002142F001021A609960BF
:100AE8001A6822F0847222F480321A6058601A68F8
:100AF80082B022F480221A60D960009101911A68AC
:100B080042F480321A601A4603E0009BB3F5A06FE6
:100B180009D0136803F400330193009B0133009359
:100B2800019B002BF1D0234B1B6813F4003318BF33
:100B380001230193019B012B0BD0204BD3F8882074
:100B48004FF0006142F47002C3F88820996002B047
:100B58007047184B1A491A6C1A4842F080521A64A6
:100B68000A6842F480420A609A689A609A6842F475
:100B780000429A609A6842F4A0529A6058601A68D3
:100B880042F080721A601A689201FCD50E49094A2F
:100B980040F205600860996821F00301996099683E
:100BA80041F002019960936803F00C03082BFAD115
:100BB800C3E700BF003802401030002400ED00E019
:100BC8000070004008544007003C0240154A9368F2
:100BD80003F00C03042B23D0082B09D0124B114A25
:100BE80012499268C2F303128A5CD3400B617047C2
:100BF8005068516852684302C2F3881201F03F01FD
:100C08004CBF0B4B084BB3FBF1F303FB02F3054A54
:100C18005268C2F3014201325200B3FBF2F3DEE73D
:100C2800034BDCE7003802400024F40008000020F1
:100C380000127A00F0B5204B204F214E0FCB85B023
:100C480004AC04E90F002D20FFF7F4FAFFF71CFBB2
:100C5800FFF700FF1B4A136B43F0080313633B685D
:100C680043F0AA433B607B687B60BB6843F07F43EB
:100C7800BB60FFF70DFF05461348FFF755FB00243F
:100C880031462846FFF708FF0028F9D17B6904AAF6
:100C980002EB4401C3F30B037B617A6931F8103C22
:100CA80001341343E4B2082C7B6108BF0024FFF72A
:100CB800EFFE0546E4E700BF44100008000C0240C0
:100CC80020A107000038024054100008002103E06A
:100CD8000B4B5B58435004310A480B4B42189A425D
:100CE800F6D30A4A02E0002342F8043B084B9A4232
:100CF800F9D3FFF7EDFE00F01FF8FFF79BFF7047F1
:100D0800A0100008000000204C0400204C04002023
:100D180090060020FEE7000008B50021044600F018
:100D280083F8044B1868C36B03B19847204600F05A
:100D3800A9F900BF6C10000870B50D4E0D4D761B5B
:100D4800B61006D00024013455F8043B9847A64253
:100D5800F9D1094E094D761B00F088F9B61006D076
:100D68000024013455F8043B9847A642F9D170BDD8
:100D780094100008941000089C10000894100008B3
:100D8800F0B4860743D0541E002A3ED0CAB20346A8
:100D980002E014F1FF3438D303F8012B9D07F8D192
:100DA800032C2BD9CDB245EA05250F2C45EA05457C
:100DB80016D9A4F110073F0903F1200606EB071620
:100DC80003F1100242E9045542E902551032B242D9
:100DD800F8D104F00F040137032C03EB07130DD9E6
:100DE8001E462246043A032A46F8045BFAD8221F14
:100DF80022F003020432134404F003042CB1C9B2F4
:100E08001C4403F8011B9C42FBD1F0BC70471446FC
:100E18000346C5E7024B13B1024800F079B87047A2
:100E280000000000250F00082DE9F04F354B85B074
:100E38000F460390186800F095F8334B1B68019330
:100E480003F5A4730293B946019BD3F848613EB3F6
:100E5800DDF808A04FF001087468651E0FD401344E
:100E680006EB84040027B9F1000F20D0D4F8003134
:100E78004B451CD0013D6B1CA4F10404F3D1234B5A
:100E880073B1D6E90032002A34D1002B32D0304673
:100E9800CAF80030AFF30080DAF80060002EDBD12A
:100EA800184B186805B0BDE8F04F00F063B87368D8
:100EB8002268013BAB420CBF75602760002AD9D07D
:100EC800D6F88811D6F804B008FA05F30B4208D111
:100ED800904773685B45B7D1DAF80030B342C9D0A0
:100EE800B2E7D6F88C01D4F88010034207D10398F2
:100EF8009047EEE7B2461E46002EADD1D0E7084631
:100F08009047E6E7480400206C1000080000000045
:100F1800002301461A46184600F02EB838B50A4C88
:100F28000A4D641BA4100AD004F18043013B05EB71
:100F38008305013C55F804399847002CF9D1BDE8E0
:100F4800384000F099B800BFA01000089C100008B5
:100F5800704700BF704700BF704700BF704700BFB1
:100F6800704700BF704700BF0120704701207047DD
:100F7800704700BF704700BF2DE9F8432B4D064668
:100F8800286898460F469146FFF7ECFF284B1C68E7
:100F9800D4F84831002B3DD05A681F2A0DDC02F1E5
:100FA800010C16BB0232C3F804C0286843F822704B
:100FB800FFF7E0FF0020BDE8F8831E4B7BB34FF43A
:100FC800C870AFF30080034648B3D4F84821002125
:100FD800C0E900214FF0010CC4F848010A46C0F8E6
:100FE8008811C0F88C11002EDCD003EB820101249B
:100FF800C1F88890D3F8880194402043022EC3F8A2
:101008008801C1F80881CDD1D3F88C110C43C3F8FD
:101018008C41C7E704F5A673C4F84831BCE72868D3
:10102800FFF7A8FF4FF0FF30C5E700BF48040020D6
:101038006C10000800000000FEE700BF00F000E0B0
:1010480000C0008000000010003000702D3E2053CA
:1010580059533A20696E697420636F6D706C6574BA
:1010680065640A002000002000000000F8B500BFF9
:10107800F8BC08BC9E467047F8B500BFF8BC08BC71
:041088009E467047C9
:08108C003CF1FF7F01000000B0
:081094001D0E0008AD0100086B
:04109C0089010008BE
:1010A00000000000FF010000000000000000000040
:1010B0000102030406070809007A030A2000002041
:1010C000000000000C03002074030020DC0300205B
:1010D0000000000000000000000000000000000010
:1010E0000000000000000000000000000000000000
:1010F00000000000000000000000000000000000F0
:1011000000000000000000000000000000000000DF
:1011100000000000000000000000000000000000CF
:1011200000000000000000000000000000000000BF
:1011300000000000000000000000000000000000AF
:10114000000000000000000000000000000000009F
:10115000000000000000000000000000000000008F
:10116000000000000000000001000000000000007E
:101170000E33CDAB34126DE6ECDE05000B00000043
:10118000000000000000000000000000000000005F
:10119000000000000000000000000000000000004F
:1011A000000000000000000000000000000000003F
:1011B000000000000000000000000000000000002F
:0C14E00000000000000000006C0600206E
:0400000508000CD50E
:00000001FF
