:020000040800F2
:1000000000000220C10C0008090D0008090D0008BD
:10001000090D0008090D0008090D00080000000086
:10002000000000000000000000000000090D0008B2
:10003000090D000800000000090D0008090D000866
:10004000090D0008090D0008090D0008090D000838
:10005000090D0008090D0008090D0008090D000828
:10006000090D0008090D0008090D0008090D000818
:10007000090D0008090D0008090D0008090D000808
:10008000090D0008090D0008090D0008090D0008F8
:10009000090D0008090D0008090D0008090D0008E8
:1000A000090D0008090D0008090D0008090D0008D8
:1000B000090D0008090D0008090D0008090D0008C8
:1000C000090D0008090D0008090D0008090D0008B8
:1000D000090D0008090D0008090D0008090D0008A8
:1000E000090D0008090D0008090D0008090D000898
:1000F000090D0008090D0008090D0008090D000888
:10010000090D0008090D0008090D0008090D000877
:10011000090D0008090D0008090D0008090D000867
:10012000090D0008090D0008090D0008090D000857
:10013000090D0008090D0008090D0008090D000847
:10014000090D0008090D0008090D0008090D000837
:10015000090D0008090D0008090D0008090D000827
:10016000090D0008090D0008090D0008090D000817
:10017000090D0008090D0008090D0008090D000807
:08018000090D0008090D00083B
:1001880010B5054C237833B9044B13B10448AFF3C9
:1001980000800123237010BD4C04002000000000E3
:1001A800C010000808B5034B1BB103490348AFF35F
:1001B800008008BD0000000050040020C0100008A6
:1001C800154B002B08BF134B9D46A3F5803A002121
:1001D8008B460F461348144A121A00F0C7FD0F4BFE
:1001E800002B00D098470E4B002B00D098470020DA
:1001F800002104000D000D48002802D00C4800F032
:100208007DFE00F08FFD2000290000F0C5FC00F005
:1002180079FD00BF00000800000000000000000099
:10022800000000004C0400208C040020050F00088A
:10023800110F0008114A124B116B41F0010110B463
:100248001163116C0F4C41F4003111641A6842F0CB
:10025800A0021A601A6A42F4EE421A629A6842F0E0
:1002680020029A609A6880B242F0800242F2080145
:100278009A602081A1815DF8044B704700380240E4
:100288000000024000440040034A13885B06FCD586
:1002980080B29080704700BF004400400C4A30B4E0
:1002A800441E0D2500F2FF3014F8011F49B11388D0
:1002B8005B06FCD589B2918023780A2B03D084424F
:1002C800F2D130BC704713885B06FCD59580F6E701
:1002D800004400400FB42DE9F0498DB014AB53F839
:1002E800046B0193327862B300246A4D6A4F234647
:1002F80031464FF00D08252A14D133445A78CAB133
:10030800623A162A00F29980DFE802F07F75649756
:100318004297979797979797979797979739979718
:10032800979726002B885806FCD592B2AA800B789E
:100338000A2B0BD00134A4B22346325D3119002AAE
:10034800D9D10DB0BDE8F04904B070472B885B06E1
:10035800FCD5A5F80480EDE79B78019A622B02F1A1
:10036800040112686FD0682B00F08680772B04BFD9
:100378000134A4B2CDE900214FF4006055E0019B9F
:100388001A1D18680192FFF789FF0134A4B2D1E75A
:10039800019B073323F00703D3E900BC083307EABE
:1003A800CC02BBF1000F42EA5B7201934FF00000F0
:1003B8007CF100030CF08041B8BF42F0004250EAE3
:1003C800010300923CD0009B43F0804300934FF41C
:1003D80080702AE09B78019A622B02F1040112686E
:1003E8003ED0682B4FD0772B04BF0134A4B2CDE99F
:1003F8000021202019E0019B191D1A7801912B88F2
:100408005B06FCD593B2AB80BFE79B78019A622B61
:1004180002F1040112681DD0682B27D0772BCDE993
:10042800002104BF0134A4B2042002AA694600F0E6
:1004380089F802A8FFF732FFA7E700230093A4E793
:100448004FF48070F1E70134A4B2CDE900214FF4F4
:100458000070EAE70134A4B2CDE900210120E4E705
:100468000134A4B2CDE900210820DEE70134A4B2AA
:10047800CDE900210220D8E70134A4B2CDE900215A
:100488004FF48060D1E70134A4B2CDE900211020F7
:10049800CBE700BF00440040F8FFFF3FF0B40D4A2F
:1004A8000D4F00F10A053026914205F8016D08D379
:1004B800312400E01C46891A631C9142DBB2F9D250
:1004C8002C70A7FB0232A8424FEAD202ECD1F0BC52
:1004D800704700BF00CA9A3BCDCCCCCC70B400F1B9
:1004E8000A06002416F8013D302BE5B21FD00C880F
:1004F80013550B886C1C0133E4B29BB20A2C0B8099
:1005080011D0C5F10805061BEDB2751BC4F109042D
:100518000835044414F80109D0540B8801339BB200
:10052800A5420B80F6D10021D15470BC7047092C2C
:1005380001D00134D6E7088813540B8801339BB2E5
:100548000B80F0E72DE9F04F87B0002310281746FD
:100558001370ADF80A3000F04A8120D9B0F5007F59
:100568004BD07AD9B0F5806F61D0B0F5006F13D158
:100578000B6802F108041B0F092BD8B200F13003F5
:100588008ABF3730137010700B6801321B01944218
:100598000B60F0D100233B7207B0BDE8F08F022852
:1005A80000F00E8117D9042840F01E810B6802F173
:1005B800200030243125002BB4BF157014700B684F
:1005C80001325B0090420B60F5D1002387F82030A0
:1005D80007B0BDE8F08F0128DED10B6802F10800F2
:1005E800302531241E064CBF147015700B6801327B
:1005F8005B0090420B60F5D1CCE70B68C3F30313A3
:10060800092B8CBF3733303313700B681A0103F092
:100618000F03092B94BF303337330A607B700B68A4
:1006280000221B010B60BA7007B0BDE8F08F0B68A1
:10063800141DC3F30333092B03F130008ABF37338A
:10064800107013700B6801321B01A2420B60F0D1CD
:1006580000233B7107B0BDE8F08F202800F0C78069
:10066800B0F5807F98D191ED007AB5EEC07AF1EEC1
:1006780010FA06D52D220123B1EE477A3A70ADF86B
:100688000A30F7EE007AB4EEE77AF1EE10FA00F1EC
:10069800D68040F3EA800024B2EE046A00E01C46EB
:1006A80067EE867A631CB4EEE77AF1EE10FA9BB235
:1006B800F5DCC7EE866A4FF0200B0DF116086E4880
:1006C800DFF8BCC143460DF10C093026C7EE267A87
:1006D8009FED6A7AFCEEE76A16EE901AF8EE666A03
:1006E80077EEE67A67EE877AFCEEE77A17EE905AAD
:1006F800884203F8016D06D83022091A0132814276
:10070800D2B2FAD21A70ACFB002099454FEAD00059
:10071800EED10DF10A0A51463A4648460193FFF7D1
:10072800DDFE5549DFF858E1019B46464FF0300C95
:10073800A94206F801CD08D8312000E010466D1A0C
:10074800421C8D42D2B2F9D23070AEFB01219E42DA
:100758004FEAD101ECD12E233A46514648468DF84E
:100768000F30FFF7BBFEBDF80A20531C65219BB272
:10077800BBF12D0FB954ADF80A3004D1023207F895
:1007880003B0ADF80A203C4A3D483021A24208F89F
:10079800011D07D83023A41A01339442DBB2FAD2E0
:1007A80088F80030A0FB023246454FEAD202EDD16C
:1007B8003A4651464846FFF791FE07B0BDE8F08F2C
:1007C8000B6802F11000302531241B044CBF147053
:1007D80015700B6801325B0090420B60F5D1002365
:1007E8003B7407B0BDE8F08F08287FF4D5AE0A68DF
:1007F800002A07DA2D233B700A68012352420A6057
:10080800ADF80A301C491E4E0DF10C090DF1160405
:100818003025914204F8015D08D8312000E01846DF
:10082800521A431C8A42DBB2F9D22070A6FB01316E
:10083800A1454FEAD101ECD10DF10A0AB8E7DFED85
:10084800116AB4EEE67AF1EE10FA13D5F0EE667A94
:10085800012466EEA76A0134B4EEE67AF1EE10FAE6
:10086800A4B2F6D44FF02D0B27E74FF6FF74DFED57
:10087800056A20E70124F5E700CA9A3B00007A449C
:10088800CDCCCCCCCDCCCC3D1749184A0B6C43F021
:10089800400330B40B64532584234FF47A741585D0
:1008A800D4621380938A43F001039382138843F040
:1008B8000103138050B1138ADB07FCD5138A23F098
:1008C80001031B041B0C01381382F4D10749064AA3
:1008D8000B8823F001031B041B0C0B80136C23F003
:1008E8004003136430BC70470038024000180040D1
:1008F8001749184A0B6C43F0400330B40B640025C9
:10090800842354241585D4621380938A43F0010309
:100918009382138843F00103138050B1138ADB07D5
:10092800FCD5138A23F001031B041B0C0138138226
:10093800F4D10849064A0B8823F001031B041B0C59
:100948000B80136C23F04003136430BC704700BF66
:10095800003802400018004009490A4B0A6C30B4BC
:1009680042F008020A6453254FF0FF340022842025
:100978001D85DC62188030BC9A805A62704700BFBF
:1009880000380240000C0040044B9A8A42F00102F1
:100998009A821A8842F001021A807047000C0040BF
:1009A800044A506A138823F001031B041B0C1380AC
:1009B800704700BF000C00400D490A6C4FF080439F
:1009C80042F0010230B484200A64532500224FF01B
:1009D800FF341D85DC6218809A805A629A8A42F038
:1009E80001029A821A8842F001021A8030BC7047CC
:1009F800003802404FF08043586A70474FF08043F8
:100A08005B6A834205D30844984294BF00200120C2
:100A18007047C043184488422CBF0020012070470B
:100A2800F0100008000000204C0400204C040020B6
:100A38008C040020384B39481A68002142F0010222
:100A48001A6099601A6822F0847222F480321A605F
:100A580058601A6882B022F480221A60D960009126
:100A680001911A6842F480321A601A4603E0009B2A
:100A7800B3F5A06F09D0136803F400330193009B0A
:100A880001330093019B002BF1D0234B1B6813F417
:100A9800003318BF01230193019B012B0BD0204B7E
:100AA800D3F888204FF0006142F47002C3F8882020
:100AB800996002B07047184B1A491A6C1A4842F0EC
:100AC80080521A640A6842F480420A609A689A60FE
:100AD8009A6842F400429A609A6842F4A0529A6076
:100AE80058601A6842F080721A601A689201FCD540
:100AF8000E49094A40F205600860996821F003012F
:100B08009960996841F002019960936803F00C03B9
:100B1800082BFAD1C3E700BF003802401030002488
:100B280000ED00E00070004008544007003C02401F
:100B3800154A936803F00C03042B23D0082B09D023
:100B4800124B114A12499268C2F303128A5CD340CD
:100B58000B6170475068516852684302C2F38812AB
:100B680001F03F014CBF0B4B084BB3FBF1F303FB08
:100B780002F3054A5268C2F3014201325200B3FB44
:100B8800F2F3DEE7034BDCE7003802400024F40010
:100B98000400002000127A002DE9F0413D4DDFF8F5
:100BA80014813D4F0FCD86B001AC0FC42B68236074
:100BB8004FF4B670FFF73EFB3848394DFFF78AFB14
:100BC8003848FFF787FB3548FFF784FB3649374B32
:100BD8000A6B374842F008020A631A6842F02A4250
:100BE8001A605A685A605A6A42F0085242F4081267
:100BF8005A620B6C43F004030B6400244FF47A73BD
:100C080053222A85EB626C63AC63EC632C642B8BF8
:100C180043F068032B832B8B43F4D0432B83AB8B9C
:100C280043F06803AB83AB8B43F4D043AB832B8C8B
:100C380003402B842B8843F084032B80AB8A43F03A
:100C48000103AB822B8C43F4885343F011032B84AC
:100C58002B8843F001032B80264606AB03EB4403A5
:100C6800314633F8143C6B634046AB63EB632B644B
:100C7800FFF730FB0134696A3846FFF72BFBE4B213
:100C88004FF4FA70FFF700FE0A2C06F1010608BFC0
:100C98000024E2E730100008A810000844100008FB
:100CA800000800407C10000800380240000C024098
:100CB800DDDDFFFF94100008002103E00B4B5B58BB
:100CC800435004310A480B4B42189A42F6D30A4A59
:100CD80002E0002342F8043B084B9A42F9D3FFF79D
:100CE800A9FE00F01FF8FFF757FF7047F010000843
:100CF800000000204C0400204C0400208C0400203C
:100D0800FEE7000008B50021044600F083F8044B14
:100D18001868C36B03B19847204600F0DBF900BFA1
:100D2800BC10000870B50D4E0D4D761BB61006D0E0
:100D38000024013455F8043B9847A642F9D1094EDE
:100D4800094D761B00F0BAF9B61006D0002401341C
:100D580055F8043B9847A642F9D170BDE410000845
:100D6800E4100008EC100008E4100008F0B486074E
:100D780043D0541E002A3ED0CAB2034602E014F102
:100D8800FF3438D303F8012B9D07F8D1032C2BD956
:100D9800CDB245EA05250F2C45EA054516D9A4F13B
:100DA80010073F0903F1200606EB071603F11002AE
:100DB80042E9045542E902551032B242F8D104F032
:100DC8000F040137032C03EB07130DD91E462246E7
:100DD800043A032A46F8045BFAD8221F22F00302D9
:100DE8000432134404F003042CB1C9B21C4403F8C0
:100DF800011B9C42FBD1F0BC704714460346C5E773
:100E0800024B13B1024800F079B8704700000000A7
:100E1800110F00082DE9F04F354B85B00F460390B0
:100E2800186800F095F8334B1B68019303F5A47319
:100E38000293B946019BD3F848613EB3DDF808A098
:100E48004FF001087468651E0FD4013406EB840462
:100E58000027B9F1000F20D0D4F800314B451CD041
:100E6800013D6B1CA4F10404F3D1234B73B1D6E903
:100E78000032002A34D1002B32D03046CAF8003074
:100E8800AFF30080DAF80060002EDBD1184B186849
:100E980005B0BDE8F04F00F063B873682268013B05
:100EA800AB420CBF75602760002AD9D0D6F88811EC
:100EB800D6F804B008FA05F30B4208D190477368D6
:100EC8005B45B7D1DAF80030B342C9D0B2E7D6F8FB
:100ED8008C01D4F88010034207D103989047EEE7BD
:100EE800B2461E46002EADD1D0E708469047E6E749
:100EF80048040020BC100008000000000023014640
:100F08001A46184600F02EB838B50A4C0A4D641B2C
:100F1800A4100AD004F18043013B05EB8305013C92
:100F280055F804399847002CF9D1BDE8384000F04D
:100F3800CBB800BFF0100008EC100008704700BFE5
:100F4800704700BF704700BF704700BF704700BFC1
:100F5800704700BF0120704701207047704700BFED
:100F6800704700BF2DE9F8432B4D06462868984680
:100F78000F469146FFF7ECFF284B1C68D4F8483120
:100F8800002B3DD05A681F2A0DDC02F1010C16BB5C
:100F98000232C3F804C0286843F82270FFF7E0FF64
:100FA8000020BDE8F8831E4B7BB34FF4C870AFF345
:100FB8000080034648B3D4F848210021C0E9002145
:100FC8004FF0010CC4F848010A46C0F88811C0F86F
:100FD8008C11002EDCD003EB82010124C1F888902B
:100FE800D3F8880194402043022EC3F88801C1F841
:100FF8000881CDD1D3F88C110C43C3F88C41C7E7D5
:1010080004F5A673C4F84831BCE72868FFF7A8FFC1
:101018004FF0FF30C5E700BF48040020BC100008AF
:1010280000000000FEE700BF0000020005000B0002
:10103800170032006D00EB00FD01E7030A777777B0
:101048007777777777777777777777777777777728
:101058007777777777777777777777777777777718
:101068007777777777777777777777777777777708
:1010780077770A0077205374617274696E672074F9
:10108800657374206170702E2E2E00002D3E205343
:10109800573A2074657374205B25645D0A0000006C
:1010A8002D3E2054494D342D3E434E543A205B2565
:1010B800645D0A002000002000000000F8B500BFB1
:1010C800F8BC08BC9E467047F8B500BFF8BC08BC21
:0410D8009E46704779
:0810DC00ECF0FF7F01000000B1
:0810E400090E0008AD0100082F
:0410EC00890100086E
:1010F00000000000000000000000000001020304E6
:1011000006070809007A030A2000002000000000FA
:10111000000000000C03002074030020DC0300200A
:1011200000000000000000000000000000000000BF
:1011300000000000000000000000000000000000AF
:10114000000000000000000000000000000000009F
:10115000000000000000000000000000000000008F
:10116000000000000000000000000000000000007F
:10117000000000000000000000000000000000006F
:10118000000000000000000000000000000000005F
:10119000000000000000000000000000000000004F
:1011A000000000000000000000000000000000003F
:1011B000000000000000000001000000000000002E
:1011C0000E33CDAB34126DE6ECDE05000B000000F3
:1011D000000000000000000000000000000000000F
:1011E00000000000000000000000000000000000FF
:1011F00000000000000000000000000000000000EF
:1012000000000000000000000000000000000000DE
:0C15300000000000000000006804002023
:0400000508000CC122
:00000001FF
