:020000040800F2
:1000000000000220C10400080905000809050008D5
:10001000090500080905000809050008000000009E
:1000200000000000000000000000000009050008BA
:10003000090500080000000009050008090500087E
:100040000905000809050008090500080905000858
:100050000905000809050008090500080905000848
:100060000905000809050008090500080905000838
:100070000905000809050008090500080905000828
:100080000905000809050008090500080905000818
:100090000905000809050008090500080905000808
:1000A00009050008090500080905000809050008F8
:1000B00009050008090500080905000809050008E8
:1000C00009050008090500080905000809050008D8
:1000D00009050008090500080905000809050008C8
:1000E00009050008090500080905000809050008B8
:1000F00009050008090500080905000809050008A8
:100100000905000809050008090500080905000897
:100110000905000809050008090500080905000887
:100120000905000809050008090500080905000877
:100130000905000809050008090500080905000867
:100140000905000809050008090500080905000857
:100150000905000809050008090500080905000847
:100160000905000809050008090500080905000837
:100170000905000809050008090500080905000827
:0801800009050008090500084B
:1001880010B5054C237833B9044B13B10448AFF3C9
:1001980000800123237010BD4C04002000000000E3
:1001A8003408000808B5034B1BB103490348AFF3F3
:1001B800008008BD0000000050040020340800083A
:1001C800154B002B08BF134B9D46A3F5803A002121
:1001D8008B460F461348144A121A00F0C7F90F4B02
:1001E800002B00D098470E4B002B00D098470020DA
:1001F800002104000D000D48002802D00C4800F032
:100208007DFA00F08FF92000290000F035F900F0A0
:1002180079F900BF0000080000000000000000009D
:10022800000000004C0400208C0400200507000892
:10023800110700081749184A0B6C43F0400330B403
:100248000B64532584234FF47A741585D462138084
:10025800938A43F001039382138843F001031380C8
:1002680050B1138ADB07FCD5138A23F001031B0462
:100278001B0C01381382F4D10749064A0B8823F076
:1002880001031B041B0C0B80136C23F04003136445
:1002980030BC704700380240001800401649174A21
:1002A8000B6C43F0400330B40B64012484235325C2
:1002B8001585D4621380938A23439382138823433A
:1002C800138050B1138ADB07FCD5138A23F001038E
:1002D8001B041B0C01381382F4D10849064A0B8809
:1002E80023F001031B041B0C0B80136C23F0400349
:1002F800136430BC704700BF00380240001800404B
:1003080064080008000000204C0400204C04002071
:100318008C040020384B39481A68002142F0010249
:100328001A6099601A6822F0847222F480321A6086
:1003380058601A6882B022F480221A60D96000914D
:1003480001911A6842F480321A601A4603E0009B51
:10035800B3F5A06F09D0136803F400330193009B31
:1003680001330093019B002BF1D0234B1B6813F43E
:10037800003318BF01230193019B012B0BD0204BA5
:10038800D3F888204FF0006142F47002C3F8882047
:10039800996002B07047184B1A491A6C1A4842F013
:1003A80080521A640A6842F480420A609A689A6025
:1003B8009A6842F400429A609A6842F4A0529A609D
:1003C80058601A6842F080721A601A689201FCD567
:1003D8000E49094A40F205600860996821F0030156
:1003E8009960996841F002019960936803F00C03E1
:1003F800082BFAD1C3E700BF0038024010300024B0
:1004080000ED00E00070004008544007003C024046
:10041800154A936803F00C03042B23D0082B09D04A
:10042800124B114A12499268C2F303128A5CD340F4
:100438000B6170475068516852684302C2F38812D2
:1004480001F03F014CBF0B4B084BB3FBF1F303FB2F
:1004580002F3054A5268C2F3014201325200B3FB6B
:10046800F2F3DEE7034BDCE7003802400024F40037
:100478000400002000127A000C4A38B5136B0C4CAB
:100488000C4D43F008031363236843F0AA43236029
:1004980063686360A36843F07F43A3602846FFF75F
:1004A800FDFE636983F470436361F7E70038024037
:1004B800000C024040420F00002103E00B4B5B5848
:1004C800435004310A480B4B42189A42F6D30A4A61
:1004D80002E0002342F8043B084B9A42F9D3FFF7A5
:1004E80019FF00F01FF8FFF7C7FF704764080008FE
:1004F800000000204C0400204C0400208C04002044
:10050800FEE7000008B50021044600F083F8044B1C
:100518001868C36B03B19847204600F095F900BFEF
:100528003008000870B50D4E0D4D761BB61006D07C
:100538000024013455F8043B9847A642F9D1094EE6
:10054800094D761B00F074F9B61006D0002401346A
:1005580055F8043B9847A642F9D170BD58080008E1
:10056800580800086008000858080008F0B4860712
:1005780043D0541E002A3ED0CAB2034602E014F10A
:10058800FF3438D303F8012B9D07F8D1032C2BD95E
:10059800CDB245EA05250F2C45EA054516D9A4F143
:1005A80010073F0903F1200606EB071603F11002B6
:1005B80042E9045542E902551032B242F8D104F03A
:1005C8000F040137032C03EB07130DD91E462246EF
:1005D800043A032A46F8045BFAD8221F22F00302E1
:1005E8000432134404F003042CB1C9B21C4403F8C8
:1005F800011B9C42FBD1F0BC704714460346C5E77B
:10060800024B13B1024800F079B8704700000000AF
:10061800110700082DE9F04F354B85B00F460390C0
:10062800186800F095F8334B1B68019303F5A47321
:100638000293B946019BD3F848613EB3DDF808A0A0
:100648004FF001087468651E0FD4013406EB84046A
:100658000027B9F1000F20D0D4F800314B451CD049
:10066800013D6B1CA4F10404F3D1234B73B1D6E90B
:100678000032002A34D1002B32D03046CAF800307C
:10068800AFF30080DAF80060002EDBD1184B186851
:1006980005B0BDE8F04F00F063B873682268013B0D
:1006A800AB420CBF75602760002AD9D0D6F88811F4
:1006B800D6F804B008FA05F30B4208D190477368DE
:1006C8005B45B7D1DAF80030B342C9D0B2E7D6F803
:1006D8008C01D4F88010034207D103989047EEE7C5
:1006E800B2461E46002EADD1D0E708469047E6E751
:1006F80048040020300800080000000000230146DC
:100708001A46184600F02EB838B50A4C0A4D641B34
:10071800A4100AD004F18043013B05EB8305013C9A
:1007280055F804399847002CF9D1BDE8384000F055
:1007380085B800BF6408000860080008704700BF5B
:10074800704700BF704700BF704700BF704700BFC9
:10075800704700BF0120704701207047704700BFF5
:10076800704700BF2DE9F8432B4D06462868984688
:100778000F469146FFF7ECFF284B1C68D4F8483128
:10078800002B3DD05A681F2A0DDC02F1010C16BB64
:100798000232C3F804C0286843F82270FFF7E0FF6C
:1007A8000020BDE8F8831E4B7BB34FF4C870AFF34D
:1007B8000080034648B3D4F848210021C0E900214D
:1007C8004FF0010CC4F848010A46C0F88811C0F877
:1007D8008C11002EDCD003EB82010124C1F8889033
:1007E800D3F8880194402043022EC3F88801C1F849
:1007F8000881CDD1D3F88C110C43C3F88C41C7E7DD
:1008080004F5A673C4F84831BCE72868FFF7A8FFC9
:100818004FF0FF30C5E700BF48040020300800084B
:1008280000000000FEE700BF2000002000000000DC
:10083800F8B500BFF8BC08BC9E467047F8B500BFC5
:08084800F8BC08BC9E46704795
:0808500078F9FF7F01000000B0
:0808580009060008AD010008CB
:040860008901000802
:10086400000000000000000000000000010203047A
:1008740006070809007A030A20000020000000008F
:10088400000000000C03002074030020DC0300209F
:100894000000000000000000000000000000000054
:1008A4000000000000000000000000000000000044
:1008B4000000000000000000000000000000000034
:1008C4000000000000000000000000000000000024
:1008D4000000000000000000000000000000000014
:1008E4000000000000000000000000000000000004
:1008F40000000000000000000000000000000000F4
:1009040000000000000000000000000000000000E3
:1009140000000000000000000000000000000000D3
:1009240000000000000000000100000000000000C2
:100934000E33CDAB34126DE6ECDE05000B00000087
:1009440000000000000000000000000000000000A3
:100954000000000000000000000000000000000093
:100964000000000000000000000000000000000083
:100974000000000000000000000000000000000073
:0C0CA400000000000000000068040020B8
:04000005080004C12A
:00000001FF
