:020000040800F2
:100000000000022059040008A1040008A10400080F
:10001000A1040008A1040008A104000800000000D9
:10002000000000000000000000000000A104000823
:10003000A104000800000000A1040008A1040008B9
:10004000A1040008A1040008A1040008A1040008FC
:10005000A1040008A1040008A1040008A1040008EC
:10006000A1040008A1040008A1040008A1040008DC
:10007000A1040008A1040008A1040008A1040008CC
:10008000A1040008A1040008A1040008A1040008BC
:10009000A1040008A1040008A1040008A1040008AC
:1000A000A1040008A1040008A1040008A10400089C
:1000B000A1040008A1040008A1040008A10400088C
:1000C000A1040008A1040008A1040008A10400087C
:1000D000A1040008A1040008A1040008A10400086C
:1000E000A1040008A1040008A1040008A10400085C
:1000F000A1040008A1040008A1040008A10400084C
:10010000A1040008A1040008A1040008A10400083B
:10011000A1040008A1040008A1040008A10400082B
:10012000A1040008A1040008A1040008A10400081B
:10013000A1040008A1040008A1040008A10400080B
:10014000A1040008A1040008A1040008A1040008FB
:10015000A1040008A1040008A1040008A1040008EB
:10016000A1040008A1040008A1040008A1040008DB
:10017000A1040008A1040008A1040008A1040008CB
:08018000A1040008A10400081D
:1001880010B5054C237833B9044B13B10448AFF3C9
:1001980000800123237010BD4804002000000000E7
:1001A80080070008084B10B51BB108480849AFF391
:1001B80000800848036803B910BD074B002BFBD02B
:1001C800BDE81040184700BF000000008007000885
:1001D8004C0400204404002000000000154B002BB4
:1001E80008BF134B9D46A3F5803A00218B460F4666
:1001F8001348144A121A00F089F90F4B002B00D04B
:1002080098470E4B002B00D098470020002104008F
:100218000D000D48002802D00C4800F039FA00F013
:100228004DF92000290000F0E7F800F037F900BF89
:1002380000000800000000000000000000000000AE
:10024800480400206404002099060008A506000858
:1002580082B042F6041303FB00F00190019B2BB11E
:10026800019B013B0193019B002BF9D102B0704720
:10027800394B3A481A68002142F001021A60996025
:100288001A6822F0847222F480321A6058601A6860
:1002980082B022F480221A60D960009101911A6814
:1002A80042F480321A601A4603E0009BB3F5A06F4F
:1002B80009D0136803F400330193009B01330093C2
:1002C800019B002BF1D0244B1B6813F4003318BF9B
:1002D80001230193019B012B0BD0214BD3F88820DC
:1002E8004FF0006142F47002C3F88820996002B0B0
:1002F8007047194B1B491A6C1B4842F080521A640C
:100308000A6842F480420A609A689A609A6842F4DD
:1003180000429A609A6842F4A0529A6058601A683B
:1003280042F080721A601A4611680B4B8901FBD59E
:100338000E4A40F2056111609A6822F003029A6041
:100348009A6842F002029A601A46936803F00C0316
:10035800082BFAD1C1E700BF003802401030002452
:1003680000ED00E00070004008544007003C0240E7
:100378001848836803F00C03042B28D0082B09D0F5
:10038800154B144A15499268C2F303128A5CD3408C
:100398000B6170474368416813F4800F436818BFC6
:1003A8000F4801F03F020CBF0B49B0FBF2F1C3F359
:1003B800881308BFB1FBF2F101FB03F2054B5B6840
:1003C800C3F3014301335B00B2FBF3F3D9E7044BFA
:1003D800D7E700BF003802400024F40004000020E2
:1003E80000127A00B0070008000000204404002032
:1003F80048040020640400201248134B026B134980
:1004080042F0020202631A6822F00F021A601A68A8
:1004180042F005021A605A68002042F002025A604F
:1004280082B01A465861536983F0030353610191FE
:10043800019B002BF7D0019B013B0193019B002BF3
:10044800F9D1F0E70038024000040240A037A000CC
:10045800002103E00B4B5B58435004310A480B4B17
:1004680042189A42F6D30A4A02E0002342F8043BB3
:10047800084B9A42F9D3FFF7FBFE00F01FF8FFF78D
:10048800BBFF7047B00700080000002044040020AC
:100498004804002064040020FEE7000008B500219D
:1004A800044600F08BF8044B1868C36B03B19847F7
:1004B800204600F06FF900BF7C07000870B50F4EAA
:1004C8000F4D761BB61018BF002405D0013455F81F
:1004D800043B9847A642F9D10A4E0B4D761B00F013
:1004E8004DF9B61018BF002406D0013455F8043B66
:1004F8009847A642F9D170BD70BD00BFA407000897
:10050800A4070008AC070008A407000870B4840713
:1005180046D0541E002A41D0CDB2034602E0621EE6
:10052800E4B3144603F8015B9A07F8D1032C2ED9DB
:10053800CDB245EA05250F2C45EA054519D903F141
:1005480010022646103E0F2E42F8105C42F80C5C52
:1005580042F8085C42F8045C02F11002F2D8A4F1F7
:10056800100222F00F0204F00F041032032C13447F
:100578000DD91E462246043A032A46F8045BFAD8E7
:10058800221F22F003020432134404F003042CB1A6
:10059800C9B21C4403F8011BA342FBD170BC7047CD
:1005A80014460346C2E700BF024B13B1024800F0ED
:1005B8006FB8704700000000A50600082DE9F04F4D
:1005C800314B83B01B68009303F5A47381460E4634
:1005D8000193009BD3F8487127B3DDF804A07C6829
:1005E800651E0ED4013407EB84044FF00008E6B111
:1005F800D4F80031B34218D0013D6B1CA4F10404B7
:10060800F5D1224B73B17B68002B36D13B68002BA8
:1006180034D03846CAF80030AFF30080DAF80070FA
:10062800002FDCD103B0BDE8F08F7B682268013B66
:10063800AB420CBF7D60C4F80080002ADCD0D7F83C
:100648008831D7F804B00121A940194208D1904750
:100658007B685B45BDD1DAF80030BB42CCD0B8E747
:10066800D7F88C31194204D14846D4F88010904705
:10067800EEE7D4F880009047EAE73B68BA461F46A1
:10068800002FACD1CEE700BF7C07000800000000B7
:10069800014600200246034600F016B838B5084B5C
:1006A800084DED1AAC1018BFED1805D0013C55F8EF
:1006B800043D9847002CF9D1BDE8384000F064B8F3
:1006C800AC070008B00700082DE9F047254C25685D
:1006D800D5F848410646884692469946CCB36068A4
:1006E8001F2818DC431C7EB104EB80050121C5F8E6
:1006F80088A0D4F8887101FA00F21743022EC4F8D2
:100708008871C5F808911ED00230636044F82080D3
:100718000020BDE8F087144B03B34FF4C870AFF363
:1007280000800446D0B1D5F84831002780E8880019
:10073800C5F8484138460123C4F88871C4F88C715B
:10074800002EE1D0D0E7D4F88C110A43C4F88C21EC
:10075800DAE705F5A674C5F84841C0E74FF0FF3061
:10076800BDE8F0877C07000800000000FEE700BF36
:10077800430000001800002000000000F8B500BF8A
:10078800F8BC08BC9E467047F8B500BFF8BC08BC6A
:040798009E467047C2
:08079C0048FAFF7F0100000094
:0807A400B1050008AD010008D9
:0407AC0089010008B7
:1007B000000000000000000000000000010203042F
:1007C00006070809007A030A00000000040300205D
:1007D0006C030020D4030020000000000000000093
:1007E0000000000000000000000000000000000009
:1007F0000000000000000000000000007807000872
:1008000000000000000000000000000000000000E8
:1008100000000000000000000000000000000000D8
:1008200000000000000000000000000000000000C8
:1008300000000000000000000000000000000000B8
:1008400000000000000000000000000000000000A8
:100850000000000000000000000000000000000098
:100860000000000000000000000000000000000088
:1008700001000000000000000E33CDAB34126DE625
:10088000ECDE05000B00000000000000000000008E
:100890000000000000000000000000000000000058
:1008A0000000000000000000000000000000000048
:1008B0000000000000000000000000000000000038
:1008C0000000000000000000000000000000000028
:040BF00018000020C9
:040BF40000000000FD
:040000050800045992
:00000001FF
