:020000040800F2
:10000000000002204D0F0008950F0008950F000812
:10001000950F0008950F0008950F000800000000DC
:10002000000000000000000000000000950F000824
:10003000950F000800000000950F0008950F0008BC
:10004000950F0008950F0008950F0008950F000800
:10005000950F0008950F0008950F0008950F0008F0
:10006000950F0008950F0008950F0008950F0008E0
:10007000950F0008950F0008950F0008950F0008D0
:10008000950F0008950F0008950F0008950F0008C0
:10009000950F0008950F0008950F0008950F0008B0
:1000A000950F0008950F0008950F0008950F0008A0
:1000B000950F0008950F0008950F0008950F000890
:1000C000950F0008950F0008950F0008950F000880
:1000D000950F0008950F0008950F0008950F000870
:1000E000950F0008950F0008950F0008950F000860
:1000F000950F0008950F0008950F0008950F000850
:10010000950F0008950F0008950F0008950F00083F
:10011000950F0008950F0008950F0008CD05000801
:10012000950F0008950F0008950F0008950F00081F
:10013000950F0008950F0008950F0008950F00080F
:10014000950F0008950F0008950F0008950F0008FF
:10015000950F0008950F0008950F0008950F0008EF
:10016000950F0008950F0008950F0008950F0008DF
:10017000950F0008950F0008950F0008950F0008CF
:08018000950F0008950F00081F
:1001880010B5054C237833B9044B13B10448AFF3C9
:1001980000800123237010BD7004002000000000BF
:1001A80080120008084B10B51BB108480849AFF386
:1001B80000800848036803B910BD074B002BFBD02B
:1001C800BDE81040184700BF00000000801200087A
:1001D800740400206C04002000000000154B002B64
:1001E80008BF134B9D46A3F5803A00218B460F4666
:1001F8001348144A121A00F003FF0F4B002B00D0CB
:1002080098470E4B002B00D098470020002104008F
:100218000D000D48002802D00C4800F0B3FF00F094
:10022800C7FE2000290000F067FE00F0B1FE00BF05
:1002380000000800000000000000000000000000AE
:1002480070040020901400208D11000899110008F6
:10025800394B3A481A68002142F001021A60996045
:100268001A6822F0847222F480321A6058601A6880
:1002780082B022F480221A60D960009101911A6834
:1002880042F480321A601A4603E0009BB3F5A06F6F
:1002980009D0136803F400330193009B01330093E2
:1002A800019B002BF1D0244B1B6813F4003318BFBB
:1002B80001230193019B012B0BD0214BD3F88820FC
:1002C8004FF0006142F47002C3F88820996002B0D0
:1002D8007047194B1B491A6C1B4842F080521A642C
:1002E8000A6842F480420A609A689A609A6842F4FE
:1002F80000429A609A6842F4A0529A6058601A685C
:1003080042F080721A601A4611680B4B8901FBD5BE
:100318000E4A40F2056111609A6822F003029A6061
:100328009A6842F002029A601A46936803F00C0336
:10033800082BFAD1C1E700BF003802401030002472
:1003480000ED00E00070004008544007003C024007
:100358001848836803F00C03042B28D0082B09D015
:10036800154B144A15499268C2F303128A5CD340AC
:100378000B6170474368416813F4800F436818BFE6
:100388000F4801F03F020CBF0B49B0FBF2F1C3F379
:10039800881308BFB1FBF2F101FB03F2054B5B6860
:1003A800C3F3014301335B00B2FBF3F3D9E7044B1A
:1003B800D7E700BF003802400024F4000400002002
:1003C80000127A0019491A4A0B6C70B443F04003C2
:1003D80053264FF47A7584240B641685D5621480ED
:1003E800938A9BB243F00103938213889BB243F034
:1003F80001031380114650B1138ADB07FCD50B8A21
:1004080023F001031B041B0C01380B82F4D10849AB
:10041800064A0B8823F001031B041B0C0B80136C8A
:1004280023F04003136470BC704700BF00380240DB
:10043800001800401849194A0B6C70B443F0400387
:100448000026542584240B641685D5621480938A6B
:100458009BB243F00103938213889BB243F00103DC
:100468001380114650B1138ADB07FCD50B8A23F0A1
:1004780001031B041B0C01380B82F4D10749064AFF
:100488000B8823F001031B041B0C0B80136C23F057
:100498004003136470BC70470038024000180040E5
:1004A80070B40948094B026C53264FF0FF35842479
:1004B800002142F0080202641E85DD621C809980DA
:1004C80070BC5962704700BF00380240000C004001
:1004D800054A938A9BB243F00103938213889BB227
:1004E80043F0010313807047000C0040044A506A2F
:1004F800138823F001031B041B0C1380704700BFF3
:10050800000C00400E48026C4FF0804370B442F07B
:10051800010253264FF0FF358424002102641E8512
:10052800DD621C80998059629A8A92B242F0010277
:100538009A821A8892B242F001021A8070BC7047FF
:10054800003802404FF08043586A70474FF08043AC
:100558005B6A834205D3084483422CBF00200120F4
:100568007047C0431844814294BF0020012070475F
:10057800F0B4114C114B226C1148002142F02002BA
:1005880053274FF47A76842522641F85DE621D8006
:10059800998059629A8A92B2012542F001024FF479
:1005A80000049A829D8180F8371344601A8892B2B9
:1005B8002A431A80F0BC70470038024000140040FB
:1005C80000E100E0054B1A8AD20705D504490A68FC
:1005D800002001320A601882704700BF00140040F2
:1005E8008C140020014B1868704700BF8C14002041
:1005F800084B1B68834205D3084483422CBF002064
:1006080001207047C0431844814294BF0020012054
:10061800704700BF8C140020114A124B116B41F037
:10062800010110B41163116C0F4C41F400311164D5
:100638001A6842F0A0021A601A6A42F4EE421A627C
:100648009A6842F020029A609A6880B242F080026A
:1006580042F20C019A602081A1815DF8044B704739
:1006680000380240000002400044004003490B8863
:10067800024A5B06FBD580B2908070470044004078
:100688000D4A70B4441E00F2FF350D26104614F8CA
:10069800011F49B113885B06FCD589B28180237894
:1006A8000A2B03D0AC42F2D170BC704713885B06AA
:1006B800FCD58680F6E700BF004400400FB42DE962
:1006C800F0418CB012AB53F8046B01933278BAB195
:1006D800754C002327461D4631464FF00D08252A44
:1006E80019D023885806FCD592B2BA800B780A2B09
:1006F8000BD00135ADB22B46725D7119002AEED1CF
:100708000CB0BDE8F04104B0704723885B06FCD507
:10071800A7F80480EDE733445A78002AE9D0623A12
:10072800162A79D8DFE802F05C6E4C782878787859
:100738007878787878787878781F787878780C006E
:100748009B78622B7ED0682B00F08B80772B019BE7
:1007580000F09C801A1D013D1B680192ADB2009308
:100768004FF400604BE0019B1A1D18680192FFF7D7
:1007780087FF0135ADB2BCE7019B073323F00703C0
:10078800D3E900010833420F21F0784E0028019385
:1007980042EACE0371F10002B8BF43F000430020E3
:1007A80001F08041009350EA010338D14FF4807082
:1007B80002AA694600F0D8F802A8FFF761FFD8E757
:1007C8009B78622B30D0682B53D0772B019B64D059
:1007D8001A1D013D1B680192ADB2009320200EE066
:1007E8009B78622B27D0682B34D0772B019B47D07E
:1007F8001A1D013D1B680192ADB20093042001351A
:10080800ADB2D5E7019B191D1A78019123885B06C3
:10081800FCD593B2BB80ACE700230093A9E7009B0B
:1008280043F080430093C1E7019B1A1D1B680192A6
:1008380000930820E3E7019B1A1D1B6801920093AF
:100848000120DCE7019B1A1D1B68019200934FF4FD
:100858000070D4E7019B1A1D1B68019200930220C7
:10086800CDE7019B1A1D1B68019200934FF480602D
:10087800C5E7019B1A1D1B68019200931020BEE773
:100888001A1D1B68019200930420B8E71A1D1B6803
:10089800019200934FF40060B1E71A1D1B680192A2
:1008A80000932020ABE700BF004400400D498B892E
:1008B8009BB243F4005343F004038B810B88094A2D
:1008C8009B06FBD59088138823F020031B041B0C80
:1008D8001380938923F004031B041B0CC0B293817B
:1008E800704700BF00440040F0B40D4A0D4F00F1BE
:1008F8000A053026914205F8016D08D3312400E03D
:100908001C46891A631C9142DBB2F9D22C70A7FBF2
:10091800023285424FEAD202ECD1F0BC704700BFE8
:1009280000CA9A3BCDCCCCCC70B40B8800250930DA
:100938002C46ADB90678302E0FD0D6540B8801332B
:100948009BB20B8001250134E4B20A2C00F1FF3080
:10095800EFD10021D15470BC7047092CF3D1ECE7DA
:100968000578D554EAE700BF2DE9F04784B00023A5
:10097800102815461370ADF8023000F0548124D9C0
:10098800B0F5007F4FD040F28280B0F5806F64D020
:10099800B0F5006F16D11A4601240B6800E0044632
:1009A8001B0F092B03F130008ABF3733A854AB540F
:1009B800601C0B6880B21B0109280B602246EED12F
:1009C80000232B7204B0BDE8F087022800F01481E0
:1009D80017D9042840F024810B6805F12000302441
:1009E8003126002BB4BF167014700B6801325B00FF
:1009F80082420B60F5D1002385F8203004B0BDE8B1
:100A0800F0870128DED10B6805F108003026312473
:100A18001F064CBF147016700B6801325B008242CF
:100A28000B60F5D1CCE71A460B680124C3F3031316
:100A3800092BD8B200F1300386BF3730A854AB5425
:100A4800601C0B6880B21B0103280B6040F0D1804A
:100A58000023AB7004B0BDE8F0871A460B68144653
:100A6800C3F30333092BD8B200F130038ABF373000
:100A78002B55285501320B6892B21B01042A1446E3
:100A88000B60EDD100232B7104B0BDE8F08720285E
:100A980000F0C980B0F5807F94D191ED007AB5EE71
:100AA800C07AF1EE10FA00F1FA80F7EE007AB4EEAF
:100AB800E77AF1EE10FA00F1DC8040F301810023BF
:100AC800B2EE046A67EE867A0133B4EEE77AF1EEA5
:100AD80010FA9BB2F2EE046AF4DCC7EEA67A5C1E4A
:100AE800A4B24FF020080DF10E077949DFF8ECC1E8
:100AF800384601AE4FF0300EC7EE277A9FED757A73
:100B0800FCEEE76A16EE902AF8EE666A77EEE67A69
:100B180067EE877AFCEEE77A17EE90AA914200F822
:100B280001ED0BD84FF0310900E09946521A09F14E
:100B380001038A42DBB2F8D280F80090ACFB0131A5
:100B4800B0424FEAD101E9D10DF1020949463046D8
:100B58002A46FFF7E9FE5E4ADFF880E13946302091
:100B6800524501F8010D0CD84FF0310C00E09C46BD
:100B7800C2EB0A0A0CF101039245DBB2F7D281F805
:100B880000C0AEFB02328E424FEAD202E8D12E23D9
:100B980049462A4630468DF80730FFF7C5FEBDF8AE
:100BA8000220531C65219BB2B8F12D0FA954ADF852
:100BB800023058D0464ADFF824E13020A24207F834
:100BC800010D08D8312100E01946A41A4B1C9442A3
:100BD800DBB2F9D23970AEFB0232BE424FEAD20222
:100BE800ECD1304649462A46FFF79EFE04B0BDE8E0
:100BF800F0872246044619E70B6805F110003026F5
:100C080031241B044CBF147016700B6801325B0052
:100C180082420B60F5D100232B7404B0BDE8F08745
:100C280008287FF4CFAE0A68002A40DB2849DFF89D
:100C3800ACE001AE0DF10E043027914204F8017DBD
:100C480008D8312000E01846521A431C8A42DBB209
:100C5800F9D22070AEFB0131B4424FEAD101ECD198
:100C68000DF10209BDE7023205F80380ADF8022054
:100C7800A0E7DFED197AB4EEE77AF1EE10FA24D5A1
:100C8800F0EE676A012467EEA67A0134B4EEE77ADB
:100C9800F1EE10FAA4B2F6D44FF02D0823E72D2276
:100CA8000123B1EE477A2A70ADF80230FDE62D2314
:100CB8002B700A68012352420A60ADF80230B5E78A
:100CC8004FF6FF74DFED047A0BE70124E4E700BF79
:100CD80000CA9A3B00007A44CDCCCC3DCDCCCCCCDC
:100CE8001249134A086B134B40F00100F0B5086332
:100CF800486C114C40F480704864116841F00C0154
:100D08001160D16800204FF4006E21F00C0101271A
:100D18004FF400764FF44035D160C3F804E0D86052
:100D2800D8625F639E606560F0BD00BF0038024016
:100D3800000002400020014000230140094A936856
:100D480043F001039360936843F080439360136812
:100D580004499B07FBD5C86C8B6823F0010380B25C
:100D68008B607047002001405649574A5748584BF6
:100D7800F0B50D6C574C45F0020584264AF20F4E2B
:100D880096270D64A2F828E0D76216809589ADB23F
:100D980045F480759581958AADB245F00105958237
:100DA8001588ADB245F0010515800A6B42F00802BE
:100DB8000A63026842F02A42026042684260426A5C
:100DC80042F0085242F4081242620A6C002042F0D3
:100DD800040253264FF47A750A641E85DD6258634F
:100DE8009863D86318641A8B92B242F068021A8327
:100DF8001A8B92B242F4D0421A839A8B92B242F082
:100E080068029A839A8B92B242F4D0429A831A8CDF
:100E180022F4085222F022021204120C1A841A88B0
:100E280092B242F084021A809A8A92B242F0010287
:100E38009A821A8C92B242F4885242F011021A84B1
:100E48001A8892B242F001021A800B6B43F4001325
:100E58000B63214620600B681E4A13F00103FAD188
:100E68001D491E481E4E036001F114050A24436003
:100E78009660D16015615460136843F02063136075
:100E8800136843F440331360136843F480631360BA
:100E9800136843F480731360136843F4802313606A
:100EA800136843F400631360136843F4005313603A
:100EB800136843F040031360136843F001031360A1
:100EC800F0BD00BF0038024000040040000C0240A2
:100ED8000008004040600240180000200060024006
:100EE80034080040B0120008000000206C04002004
:100EF800700400209014002038B52D20FFF78CFBDB
:100F08000B480C4D0C4C00F500614FF48062FFF764
:100F18002BFF0A20FFF756FA084B00221A6469686B
:100F28000748626AFFF7CAFB6420FFF74BFAF6E747
:100F38008C0400204060024000040040000800408B
:100F48006C120008002103E00B4B5B58435004313E
:100F58000A480B4B42189A42F6D30A4A02E0002389
:100F680042F8043B084B9A42F9D3FFF771F900F0B5
:100F78001FF8FFF7C1FF7047B012000800000020FB
:100F88006C0400207004002090140020FEE700008C
:100F980008B50021044600F08BF8044B1868C36BB1
:100FA80003B19847204600F075F900BF7C1200088D
:100FB80070B50F4E0F4D761BB61018BF002405D024
:100FC800013455F8043B9847A642F9D10A4E0B4D17
:100FD800761B00F053F9B61018BF002406D0013470
:100FE80055F8043B9847A642F9D170BD70BD00BFC3
:100FF800A4120008A4120008AC120008A4120008E9
:1010080070B4840746D0541E002A41D0CDB203469E
:1010180002E0621EE4B3144603F8015B9A07F8D1B4
:10102800032C2ED9CDB245EA05250F2C45EA0545F6
:1010380019D903F110022646103E0F2E42F8105C13
:1010480042F80C5C42F8085C42F8045C02F11002B9
:10105800F2D8A4F1100222F00F0204F00F041032AB
:10106800032C13440DD91E462246043A032A46F897
:10107800045BFAD8221F22F003020432134404F05E
:1010880003042CB1C9B21C4403F8011BA342FBD1D1
:1010980070BC704714460346C2E700BF024B13B149
:1010A800024800F06FB8704700000000991100086E
:1010B8002DE9F04F314B83B01B68009303F5A473FF
:1010C80081460E460193009BD3F8487127B3DDF89B
:1010D80004A07C68651E0ED4013407EB84044FF02D
:1010E8000008E6B1D4F80031B34218D0013D6B1CBA
:1010F800A4F10404F5D1224B73B17B68002B36D1DF
:101108003B68002B34D03846CAF80030AFF3008073
:10111800DAF80070002FDCD103B0BDE8F08F7B68EF
:101128002268013BAB420CBF7D60C4F80080002AF6
:10113800DCD0D7F88831D7F804B00121A94019428A
:1011480008D190477B685B45BDD1DAF80030BB42D7
:10115800CCD0B8E7D7F88C31194204D14846D4F836
:1011680080109047EEE7D4F880009047EAE73B68A4
:10117800BA461F46002FACD1CEE700BF7C1200084C
:1011880000000000014600200246034600F016B8A1
:1011980038B5084B084DED1AAC1018BFED1805D03E
:1011A800013C55F8043D9847002CF9D1BDE838407A
:1011B80000F06AB8AC120008B01200082DE9F04738
:1011C800254C2568D5F848410646884692469946F2
:1011D800CCB360681F2818DC431C7EB104EB800583
:1011E8000121C5F888A0D4F8887101FA00F21743E4
:1011F800022EC4F88871C5F808911ED002306360C9
:1012080044F820800020BDE8F087144B03B34FF466
:10121800C870AFF300800446D0B1D5F84831002734
:1012280080E88800C5F8484138460123C4F8887129
:10123800C4F88C71002EE1D0D0E7D4F88C110A43A1
:10124800C4F88C21DAE705F5A674C5F84841C0E76B
:101258004FF0FF30BDE8F0877C1200080000000066
:10126800FEE700BF5B25645D5B25645D0A00000046
:10127800430000004000002000000000F8B500BF57
:10128800F8BC08BC9E467047F8B500BFF8BC08BC5F
:041298009E467047B7
:08129C0048EFFF7F0100000094
:0812A400A5100008AD010008CF
:0412AC0089010008AC
:1012B0000000000000000000000000000102030424
:1012C00006070809007A030A0000020005000B0067
:1012D000170032006D00EB00FD01E703E703FD019D
:1012E000EB006D00320017000B000500020000004B
:1012F000000000002C03002094030020FC030020C9
:1013000000000000000000000000000000000000DD
:1013100000000000000000000000000000000000CD
:10132000000000007812000800000000000000002B
:1013300000000000000000000000000000000000AD
:10134000000000000000000000000000000000009D
:10135000000000000000000000000000000000008D
:10136000000000000000000000000000000000007D
:10137000000000000000000000000000000000006D
:10138000000000000000000000000000000000005D
:10139000000000000000000001000000000000004C
:1013A0000E33CDAB34126DE6ECDE05000B00000011
:1013B000000000000000000000000000000000002D
:1013C000000000000000000000000000000000001D
:1013D000000000000000000000000000000000000D
:1013E00000000000000000000000000000000000FD
:0C1710000000000000000000400000206D
:04171C0000000000C9
:0400000508000F4D93
:00000001FF
